:1000000000100020910B00008D0B00008D0B0000F4
:10001000E15600008D0B00008D0B00008D0B0000E1
:100020008D0B00008D0B00008D0B0000417A00004D
:100030008D0B00008D0B0000B17A000059640000A8
:100040008D0B0000B9B800008D0B00008D0B000077
:1000500049B0000011B90000C5B80000DDB80000CB
:10006000BDB80000651100003D1200008D0B0000BE
:100070008D0B00008D0B00008D0B00008D0B000020
:100080008D0B00008D0B0000651200008D0B000031
:100090008D0B00008D0B00008D0B00008D0B000000
:1000A0008D0B00008D0B00008D0B00008D0B0000F0
:1000B00015B90000C1B80000AD6300004DB90000E3
:1000C0008D0B000071A200008D0B00008D0B000055
:1000D0008D0B00008D0B00008D0B00008D0B0000C0
:1000E0008D0B00008D0B00008D0B00008D0B0000B0
:1000F0008D0B00008D0B00008D0B00008D0B0000A0
:100100008D0B00008D0B00008D0B000010B5054C11
:10011000237833B9044B13B10448AFF300800123B3
:10012000237010BDB0130020000000000416010071
:1001300008B5034B1BB103490348AFF3008008BD6A
:1001400000000000B413002004160100154B002B22
:1001500008BF134B9D46A3F5803A00218B460F46FE
:100160001348144A121A0DF0F6FD0F4B002B00D065
:1001700098470E4B002B00D0984700200021040028
:100180000D000D48002802D00C48AFF300800DF0A0
:10019000B3FD2000290000F00DFA0DF099FD00BF1D
:1001A0000000080000100020000000000000000017
:1001B000B0130020303500200000000000000000D7
:1001C00008B5002000F0FAFB08BD00230B70704753
:1001D00000B583B043E0314806F01EF9304B186893
:1001E00008F04DFA1F28F6D9002310222D492C487B
:1001F000006808F02FFA00231A46012128480068F9
:1002000007F086FE0028F6D1244806F005F9002301
:10021000102224492248006808F01CFA00231A46DC
:1002200019461F48006807F073FE0028F6D11D4BE1
:100230001B88E3B11B4B1A88012A1ED0194B1B885F
:10024000022B22D0184B1D68184C20460DF0F4FDEF
:1002500002462146284602F025FF0028F2D14FF041
:10026000FF321049124B186806F07CFBB6E7114AC2
:1002700064210E480DF0ACFDDCE79B8800920E4A2D
:1002800064210A480DF0A4FDD8E7064B9B880B4A71
:10029000642106480DF09CFDD4E700BFA086010054
:1002A00090180020FC240020B81100208C1E002093
:1002B000402000208CE70000A4E70000DCE70000FD
:1002C00030B585B037E003A94FF47A7005F006FF2A
:1002D000002847D10023019300937B4B7B4A03996D
:1002E0007B4805F02DFE3DE07A4A5288013292B2F9
:1002F00079490A800092794A642179480DF068FDB5
:10030000784B1D68764C20460DF096FD024621463E
:10031000284602F0C7FE0028F2D16E496E4B1B88BA
:100320004B8000231A467048006806F049FA694B72
:100330001B88012B3AD04FF0FF31002007F056F810
:100340006A4A02216A4B186808F090F9694B1860F4
:100350000028F0D0684C21465D4805F00BFE23785C
:10036000002BB0D1614CA288A1685A480DF0E8FC7E
:10037000E16839B16288A388D21A92B2554818440C
:100380000DF0DEFC5B4B1968594B186808F074F9E6
:10039000504B1B88002BCAD14F4A1288002AA3D089
:1003A0004C4949888A42C2D0C1D99DE7494B5A88F5
:1003B000494B1B889A42BED15049514805F0DAFD9D
:1003C000444B9B884F4A11684A1C93421DD093426C
:1003D000B1D94A4B1B78002BADD14B4B02221A806E
:1003E000013199803C4A1288013A5A8003A940F2AF
:1003F000DC5005F073FE00285BD000231A4642490A
:100400003948006806F0DCF995E73E4A13603F4B37
:100410001B680F2B4BD810223D493E4800EB0310C0
:100420000DF08EFC394A136801331360294A538852
:1004300092880092384A642129480DF0C9FC294B62
:100440001D68274C20460DF0F7FC02462146284641
:1004500002F028FE0028F2D11E4C012363800DF02B
:1004600083FC2E4A82FB0032C317C3EB62134FF4A6
:10047000FA7202FB130398B205F016FE00231A4627
:1004800021461948006806F09BF954E7214901EB21
:1004900004100134102201EB04110DF051FC0E2C5C
:1004A000F4DD10221A491E480DF04AFCBEE7002474
:1004B000F5E70022019201230093134603991048A7
:1004C00005F078FD99E700BF0C250020CB01000066
:1004D000CC1300207C1E00200010002004E7000048
:1004E0008C1E0020B811002040200020781600202B
:1004F000901800207416002071160020701600203D
:10050000641E00208C160020541E0020501E002067
:10051000FC240020501D002048E70000D34D62104D
:10052000401E002008B500221146074B186807F04E
:10053000FFFC00B108BD00230222194603480068F1
:1005400006F090FFF6E700BF90180020E4130020AB
:1005500000B585B004E0134B1B78002BFBD100BF26
:100560004FF0FF31002006F041FF0F4C21460F48AD
:1005700005F000FD2378002BF1D10A4B01221A70FF
:1005800003A94FF47A7005F0A9FD0028E3D10023F8
:1005900001930093034B064A0399044805F00AFDB2
:1005A000D9E700BF0C25002071160020CC130020D5
:1005B000CB01000010B584B005F01EFFFFF700FE70
:1005C000244B1860244B0293244B01930323009384
:1005D00000234FF48C722249224806F013FC224B70
:1005E0001860002833D0214B0293214B0193042340
:1005F000009300234FF48C721E491F4806F002FC42
:1006000028B31E4B02931E4B01930123009300233A
:100610008C221C491C4806F0F5FB1C4B1860B0B13D
:10062000002400941A4B1B4A1021084606F0B5F826
:10063000194B18604FF4807322461849054800682A
:1006400008F00CF8164B20221A6005F0E1FE00209D
:1006500004B010BD90180020F81C0020981800204D
:10066000D8E60000C102000094180020A424002055
:1006700044200020E8E60000D10100001816002008
:10068000E8130020F8E6000051050000E413002004
:10069000F01F0020F01E00204020002090170020B6
:1006A0000CA0004610B5064C01220021206807F07E
:1006B00025FC044B32222221206807F023FC10BDC8
:1006C00090180020250500002DE9F84306469046C5
:1006D0009946002203F48073134315D108F40002F5
:1006E0000023134315D1224A002302EA080003EA3B
:1006F000090150EA010305D008F00804002554EA76
:10070000050312D1BDE8F8830022114607F058FF17
:10071000E4E7184F384600F0E2FA42F2107005F0B4
:100720007BFE384600F0DBFADDE7134C204600F094
:10073000D6FA42F2107005F06FFE204600F0CFFAB4
:100740000E4C00232360304607F094FF21460C4BEB
:10075000186806F0E9FE2368002BD3D0094B4FF050
:1007600080521A60BFF34F8FBFF36F8FCAE700BF8D
:10077000088D0100D4EB0000ECEB000010250020F8
:100780009418002004ED00E010B5074C22460749FC
:1007900007F068FF2388B3F5807F01D0012010BDEA
:1007A0000228FCD10020FAE7021000209016002059
:1007B00000207047704708B500F03FF908BD000001
:1007C00008B50421112003F00FF90121084802F0B7
:1007D00031FD0221074803F007F90221064803F022
:1007E00003F90221054803F0FFF8002008BD00BF0F
:1007F00030253E0002001E000300200005002400FA
:1008000008B5214B01225A64204BDB6C1B0E0AD128
:100810001F494AF6E8520A601E48026842F0040284
:10082000026000220A60012B28D91B4A136A23F4B4
:10083000441343F488131362A2F58042136843F40F
:100840008073136002F546522432136843F4F84370
:10085000136004F065FE00F007F904F0F9FD04F000
:1008600017FE04F049FEFFF7ABFF04F001FE00F0B5
:10087000EDF805F0FDFD05F005F808BD074A136821
:1008800043F400531360D0E700000E40B081E00F46
:1008900090310E4098310E4000400E4064310E40C1
:1008A00008B505F005FE08BD08B500F099F800F0A0
:1008B000ADF808BD08B505F0D7FA04F07DFE08BD17
:1008C00008B504F0EBFB04F095FD04F0B9FD00F071
:1008D00083F808BD7047FEE708B5FFF7FCFF08BDC9
:1008E000704708B5FFF7FCFF08BD704738B50446F0
:1008F0000D4604F0DDFB29462046FFF7F6FF38BD24
:1009000008B5FFF7E1FE08BD10B586B025492648B9
:1009100007F0DAFA254B186000B9FEE706A90023B4
:1009200041F8043D07F092FE00B1FEE71F4C204A5B
:10093000204B1968206807F04FFD0021206804F063
:1009400035FD00B1FEE74FF00111184B186807F0B4
:1009500074FE00B1FEE7154B18684FF0FF3240F20D
:10096000FF13CDE900234FF0FF324FF0FF3307F0C4
:1009700079FD00B1FEE7104B1B88ADF81030ADF8E3
:100980000C3004A9094B186807F050FD00B1FEE7D0
:1009900003A9064B186807F061FD00B1FEE706B039
:1009A00010BD00BFE30800001410002088110020D3
:1009B000ED0800000C100020D0EB000082B0054BC9
:1009C000019302AB03EB800050F8043C186802B0BE
:1009D000704700BF8811002008B5FFF795FF08BDDC
:1009E00008B5034800F076F9024800F073F908BD35
:1009F000D4EB0000ECEB000018B1034A10600020BB
:100A000070472520704700BF2025002010B5044CFA
:100A10000449206802F044FA2068FFF7EDFF10BD9A
:100A2000B81100209411002008B5012304220521EB
:100A3000002003F031FF002008BD08B50023042288
:100A40000521184603F028FF002008BD08B5012144
:100A5000044802F0EFFBFFF7AEFEFFF7E5FF00F002
:100A600017F808BD00350A0008B50121014802F059
:100A7000E1FB08BD00350A00014B10221A607047E7
:100A80000CA00044014B10221A6070470CA00046D5
:100A900070B586B06C46374D0FCD0FC495E8030096
:100AA00084E803000121344802F0C4FB334E0121E5
:100AB000304602F0BFFB01258DF80E50304B0293FB
:100AC000304C6946204604F08CF92B46042206215E
:100AD000022003F0E1FE00232A460721022003F052
:100AE000DBFE2B4604220821022003F0D5FE2B4614
:100AF00004221146002003F0CFFE234BA3670B23F3
:100B000063674FF4487005F087FCFFF7B5FF1420CA
:100B100005F082FCFFF7B6FF232005F07DFCFFF710
:100B2000ABFFB921204604F09FF9FFF7ABFF00238C
:100B30001A460621022003F0AFFE00231A460721C1
:100B4000022003F0A9FE2B4600220821022003F018
:100B5000A3FE2B4600220421104603F09DFE2046F2
:100B600004F0D0F80021A1676167304602F062FB13
:100B700006B070BD04EC000000350A00005204000D
:100B800000127A00000401400B0B000BFEE700008E
:100B900010B500F06FF8074B074C1946074A04E000
:100BA00010680860043304310432A342F8D3FFF71D
:100BB000CDFA00BF00100020B01300200C16010079
:100BC0000048704700F04902114BD3F8943003F00D
:100BD0000703023B032B0DD8DFE803F0050F0208E3
:100BE0000C4B18680BE00C4B186808E00B4B1868AE
:100BF000400804E0094B186801E04FF40040044B42
:100C0000D3F80031C3F304230133B0FBF3F0704792
:100C100000400E40C8120020C0120020C412002064
:100C200008B5FFF7D1FF054BD3F80831C3F308230C
:100C30000133B0FBF3F0024B186008BD00400E40DA
:100C4000BC120020014B1868704700BFC012002082
:100C500008B5064B1860064BD3F8943003F0070331
:100C6000022B00D008BDFFF7DBFFFBE7C01200201E
:100C700000400E40044B054A9A60D3F8882042F4A5
:100C80007002C3F88820704700ED00E0000000000B
:100C90004FF4004070474FF47A707047014B18686A
:100CA000704700BFC8120020002303607047000097
:100CB000064B1B681844064A904203D8034A10604A
:100CC000184670474FF0FF33FAE700BFCC12002000
:100CD0000000042008B543680068984708BD08B5BF
:100CE00003690068984708BD10B50446012109480A
:100CF00002F0A0FA0121084802F09CFAA378B3FAA6
:100D000083F35B0904226178207803F0C5FD00209D
:100D100010BD00BF4041050000350A0083784BB18B
:100D20000378407803EB4303190101228240064B0C
:100D30005A5070470378407803EB430319010122AE
:100D40008240024B5A5070470CA000460CA0004451
:100D500083784BB10378407803EB430319010122F8
:100D60008240064B5A5070470378407803EB4303A8
:100D7000190101228240024B5A5070470CA00044D6
:100D80000CA00046027843780121994002EB420210
:100D9000130103F1804303F520439961704700007C
:100DA0000278437802EB42021101074A0A4403EB3E
:100DB000C2039B001B68DBB2827812B9B3FA83F3DB
:100DC0005B091846704700BF0CA01042F0B585B013
:100DD0000E4614469DF83410654A1278002A00F039
:100DE000B9800546072C00F2B8800A9A002A00F064
:100DF000B6800B9A002A00F0B4800E9AB2F5006F0C
:100E000000F3B180012852D05A4A02EB0412127B3F
:100E1000002A00F0AA800022019202920392564F0B
:100E200007EB4417002E47D1DFF84CE14FEA441C92
:100E300000204EF80C007860B860F860B87840F098
:100E40001000B870F87840F03000F87019B9C1B2ED
:100E500041F00301F97000930E9B013B464861018C
:100E6000421830F801C063F30E1C20F801C00A9B41
:100E700093600B9B5360D3789DF83C1061F3830320
:100E8000D370012D35D0109B002B59D02046394905
:100E900022018B18109C8C50119A5A6000249C607F
:100EA0005D733A46694603F087FD204653E00C9A8D
:100EB000002AA9D131484EE0DFF8BCE04FEA441CDB
:100EC0000EEB0C0200204EF80C0050609060D060D9
:100ED000907840F010009070D07840F00300D0700F
:100EE0000029B8D10EEB4412C1B241F03001D170EB
:100EF000B1E79446127B42F003028CF80C20DCF838
:100F00000C20042161F39F02CCF80C200CF1100E90
:100F10009CE80F008EE80F00DCF81C206FF0030146
:100F200061F39F02CCF81C200C9BCCF81430012EEE
:100F3000A9D10B9ACCF818200C9ACCF80420A2E77F
:100F4000002DA3D10C4B03EB44139A786FF30412DA
:100F50009A709BE70A4805B0F0BD0848FBE70748D0
:100F6000F9E70648F7E70548F5E70648F3E700BF65
:100F7000A426002024250020A4250020018000F0C4
:100F8000028000F0078000F0124B1B78F3B1F8B13B
:100F900010B5044602F089FE0023072B12DC0E4A2E
:100FA00002EB0312127B0AB10133F6E723600A4A0F
:100FB0001B01D11801240C730024D45002F07BFED5
:100FC000204602E002F077FE044810BD0448704756
:100FD00004487047A426002024250020048000F047
:100FE000028000F0018000F000B583B0144B1B6854
:100FF000019300238DF8043002F057FE114B1B784B
:1010000033B9104B01221A7002F055FE002309E09B
:1010100002F051FE0C480FE00C4A02EB03120021D3
:1010200011730133072BF7DD04238DF807300DEB27
:10103000030003F097FC002003B05DF804FB00BF41
:101040001CEC0000A4260020038000F024250020D2
:1010500010B588B00E9C07940D9C06949DF8304006
:1010600005940B9C04949DF828400394002402945A
:10107000019300920B46024621462046FFF7A6FE4A
:1010800008B010BD08B50A4B1B785BB107280BD818
:10109000084B03EB00131B7B43B1002103F058FC0A
:1010A000002000E0044808BD0448FCE70448FAE7D3
:1010B000A426002024250020028000F0018000F0FA
:1010C000078000F008B50A4B1B785BB107280BD8E6
:1010D000084B03EB00131B7B43B1012103F038FCE9
:1010E000002000E0044808BD0448FCE70448FAE793
:1010F000A426002024250020028000F0018000F0BA
:10110000078000F0114B1B78BBB1072817D8C1B17D
:101110000F4B03EB00131B7BABB11F2807D80D4B04
:101120001A6AC0B2012303FA00F0024202D1002081
:10113000087070470B7000207047074870470748D9
:101140007047064870470648704700BFA426002035
:101150002425002000200E40028000F0018000F0D5
:10116000078000F0F8B5194B1F6EDB6E1F4002D4EC
:101170000126002402E0FEE701347600072C24D883
:101180003E42F9D0114B9E662301114AD358002BE1
:10119000F2D002EB0415A9680131A9606A68204603
:1011A000984780F00103DBB26A7B012AE4D1002B6F
:1011B000E2D0084B03EB4413197B6FF34101197321
:1011C0001A7F6FF341021A77D6E7F8BD00200E4070
:1011D00024250020A425002010B504467CB194FAF3
:1011E000A4F0B0FA80F0C2B20123934024EA0304D1
:1011F000034B53F82230002BF0D09847EEE710BD98
:10120000A8260020054B4FF48022C3F880211A60E5
:101210004FF48062C3F880211A60704700E100E05B
:1012200038B504460D4602F040FD034B43F8245008
:1012300002F041FD38BD00BFA826002008B5084BCC
:10124000D3F82804D3F81C24104020F42A5020F0AE
:101250002A004004400CC3F82404FFF7BDFF08BD7A
:1012600000A0004008B5084BD3F82804D3F81C248C
:10127000104020F4AA4020F055000004000CC3F8F0
:101280002404FFF7A9FF08BD00A00040002343632A
:10129000704700000023032B07D8054A52F823208B
:1012A000517F814202D00133F5E70022104670479A
:1012B000E826002090F83130022B01D00020704742
:1012C000427E437F02EB42021101044A0A4403EBCF
:1012D000C2039B001868C0B2704700BF1CA0104238
:1012E00090F8323063B903680422DA6003681A693F
:1012F00012F0020FFAD05A6F42F002025A6770479A
:10130000012B00D0704703685A6C12F0020FFAD11B
:1013100004225A6003689A6812F0020FFAD05A6DDC
:1013200042F002025A65EDE790F8323013B1012B1A
:1013300009D070470268536F23F0020353670368B4
:101340000822DA60704703685A6C12F0020FFAD173
:101350005A6D22F002025A65036808225A60E8E7D3
:1013600040B149B152B1B2F5006F01D800207047C9
:10137000034870470348704701487047004870476A
:10138000037000F0027000F00368D84A93420DD059
:10139000D74A934200F0A982D64A934200F01185C1
:1013A000D54A934200F07A87D44870470B7A002BD5
:1013B0005ED0012B00F0C180022B00F0C080032B17
:1013C00000F0BF80042B00F0BE80052B00F0BD8034
:1013D000062B00F0BC80072B00F0BB80082B00F030
:1013E000BA80092B00F0B9800A2B00F0B8800B2BD3
:1013F00000F0B7800C2B00F0B6800D2B00F0B5800C
:101400000E2B00F0B4800F2B00F0B380102B00F0F7
:10141000B280112B00F0B180122B00F0B080132BA2
:1014200000F0AF80142B00F0AE80152B00F0AD80E3
:10143000162B00F0AC80172B00F0AB80182B00F0BF
:10144000AA80192B00F0A9801A2B00F0A8801B2B72
:1014500000F0A7801C2B00F0A6801D2B00F0A580BB
:101460001E2B00F0A4801F2B40F0A380052300E07A
:101470000023C3754B7A002B00F09D80012B00F0F8
:10148000FF80022B00F0FE80032B00F0FD80042B78
:1014900000F0FC80052B00F0FB80062B00F0FA80AA
:1014A000072B00F0F980082B00F0F880092B00F0E2
:1014B000F7800A2B00F0F6800B2B00F0F5800C2B48
:1014C00000F0F4800D2B00F0F3800E2B00F0F28082
:1014D0000F2B00F0F180102B00F0F080112B00F0AA
:1014E000EF80122B00F0EE80132B00F0ED80142B18
:1014F00000F0EC80152B00F0EB80162B00F0EA805A
:10150000172B00F0E980182B00F0E880192B00F071
:10151000E7801A2B00F0E6801B2B00F0E5801C2BE7
:1015200000F0EE801D2B00F0ED801E2B00F0EC8013
:101530001F2B40F0EB8000233EE0002399E70023BF
:1015400097E7002395E7002393E7002391E7012322
:101550008FE701238DE701238BE7012389E701232F
:1015600087E7022385E7022383E7022381E702233B
:101570007FE702237DE702237BE7032379E7032349
:1015800077E7032375E7032373E7032371E7032357
:101590006FE703236DE705236BE7052369E7052361
:1015A00067E7052365E7052363E7052361E705236F
:1015B0005FE7FF235DE7002303760B7A002B00F043
:1015C000A780012B00F00981022B00F00881032B7A
:1015D00000F00781042B00F00681052B00F0058147
:1015E000062B00F00481072B00F00381082B00F08C
:1015F0000281092B00F001810A2B00F000810B2BE6
:1016000000F0FF800C2B00F0FE800D2B00F0FD8021
:101610000E2B00F0FC800F2B00F0FB80102B00F055
:10162000FA80112B00F0F980122B00F0F880132BB8
:1016300000F0F780142B00F0F680152B00F0F580F9
:10164000162B00F0F480172B00F0F380182B00F01D
:10165000F280192B00F0F1801A2B00F0F0801B2B88
:1016600000F0EF801C2B00F0EE801D2B00F0ED80D1
:101670001E2B00F0EC801F2B40F0EB80072348E08E
:10168000002399E7002397E7002395E7002393E7DA
:10169000012391E701238FE701238DE701238BE7E6
:1016A000012389E7022387E7022385E7022383E7F3
:1016B000022381E702237FE702237DE703237BE701
:1016C000032379E7032377E7032375E7032373E70E
:1016D000032371E703236FE705236DE705236BE71A
:1016E000052369E7052367E7052365E70000014057
:1016F0000004014000080140000C0140037000F0AC
:10170000052359E7052357E7052355E7FF2353E74B
:101710000023C3764B7A002B00F09D80012B00F054
:10172000A680022B00F0A580032B00F0A480042BE0
:1017300000F0A380052B00F0A280062B00F0A18012
:10174000072B00F0A080082B00F09F80092B00F0F1
:101750009E800A2B00F09D800B2B00F09C800C2BB0
:1017600000F09B800D2B00F09A800E2B00F09980EA
:101770000F2B00F09880102B00F09780112B00F0B9
:101780009680122B00F09580132B00F09480142B80
:1017900000F09380152B00F09280162B00F09180C2
:1017A000172B00F09080182B00F08F80192B00F081
:1017B0008E801A2B00F08D801B2B00F08C801C2B50
:1017C00000F08B801D2B00F08A801E2B00F089809A
:1017D0001F2B40F0888000233EE0012399E702237D
:1017E00097E7032395E7042393E7052391E70B236A
:1017F0008FE70C238DE70D238BE70E2389E70F235B
:1018000087E7062385E7072383E7082381E7092382
:101810007FE70A237DE70B237BE7092379E70A2388
:1018200077E70B2375E70C2373E70D2371E70E238E
:101830006FE70F236DE700236BE7012369E70223BE
:1018400067E7032365E7042363E7052361E70623CE
:101850005FE7FF235DE7012303774B7C43768B7CB7
:101860004377CB7C83760B7D837700207047022300
:10187000F2E70323F0E70423EEE70523ECE70B236D
:10188000EAE70C23E8E70D23E6E70E23E4E70F235E
:10189000E2E70623E0E70723DEE70823DCE7092386
:1018A000DAE70A23D8E70B23D6E70923D4E70A238C
:1018B000D2E70B23D0E70C23CEE70D23CCE70E2392
:1018C000CAE70F23C8E70023C6E70123C4E70223C2
:1018D000C2E70323C0E70423BEE70523BCE70623D2
:1018E000BAE70723B8E7FF23B6E70B7A002B5ED0F1
:1018F000012B00F0C180022B00F0C080032B00F010
:10190000BF80042B00F0BE80052B00F0BD80062BAD
:1019100000F0BC80072B00F0BB80082B00F0BA80E1
:10192000092B00F0B9800A2B00F0B8800B2B00F0D7
:10193000B7800C2B00F0B6800D2B00F0B5800E2B7D
:1019400000F0B4800F2B00F0B380102B00F0B280B9
:10195000112B00F0B180122B00F0B080132B00F09F
:10196000AF80142B00F0AE80152B00F0AD80162B4D
:1019700000F0AC80172B00F0AB80182B00F0AA8091
:10198000192B00F0A9801A2B00F0A8801B2B00F067
:10199000A7801C2B00F0A6801D2B00F0A5801E2B1D
:1019A00000F0A4801F2B40F0A380052300E000235B
:1019B000C3754B7A002B00F09D80012B00F0FF8057
:1019C000022B00F0FE80032B00F0FD80042B00F0C2
:1019D000FC80052B00F0FB80062B00F0FA80072B23
:1019E00000F0F980082B00F0F880092B00F0F78058
:1019F0000A2B00F0F6800B2B00F0F5800C2B00F08A
:101A0000F4800D2B00F0F3800E2B00F0F2800F2BF2
:101A100000F0F180102B00F0F080112B00F0EF802F
:101A2000122B00F0EE80132B00F0ED80142B00F051
:101A3000EC80152B00F0EB80162B00F0EA80172BC2
:101A400000F0E980182B00F0E880192B00F0E78007
:101A50001A2B00F0E6801B2B00F0E5801C2B00F019
:101A6000E4801D2B00F0E3801E2B00F0E2801F2B92
:101A700040F0E18000233EE0002399E7002397E750
:101A8000002395E7002393E7002391E701238FE7E5
:101A900001238DE701238BE7012389E7012387E7F2
:101AA000022385E7022383E7022381E702237FE7FE
:101AB00002237DE702237BE7032379E7032377E70C
:101AC000032375E7032373E7032371E703236FE71A
:101AD00003236DE705236BE7052369E7052367E724
:101AE000052365E7052363E7052361E705235FE732
:101AF000FF235DE7002303760B7A002B00F09D8027
:101B0000012B00F0DF80022B00F0DE80032B00F0C1
:101B1000DD80042B00F0DC80052B00F0DB80062B41
:101B200000F0DA80072B00F0D980082B00F0D88075
:101B3000092B00F0D7800A2B00F0D6800B2B00F089
:101B4000D5800C2B00F0D4800D2B00F0D3800E2B11
:101B500000F0D2800F2B00F0D180102B00F0D0804D
:101B6000112B00F0CF80122B00F0CE80132B00F051
:101B7000CD80142B00F0CC80152B00F0CB80162BE1
:101B800000F0CA80172B00F0C980182B00F0C88025
:101B9000192B00F0C7801A2B00F0C6801B2B00F019
:101BA000C5801C2B00F0C4801D2B00F0C3801E2BB1
:101BB00000F0C2801F2B40F0C18007233EE00023CD
:101BC00099E7002397E7002395E7002393E7012394
:101BD00091E701238FE701238DE701238BE70123A1
:101BE00089E7022387E7022385E7022383E70223AD
:101BF00081E702237FE702237DE703237BE70323BB
:101C000079E7032377E7032375E7032373E70323C8
:101C100071E703236FE705236DE705236BE70523D2
:101C200069E7052367E7052365E7052363E70523E0
:101C300061E705235FE7FF235DE70023C3764B7A67
:101C4000002B7DD0012B7ED0022B7ED0032B7ED0AB
:101C5000042B7ED0052B7ED0062B7ED0072B7ED08A
:101C6000082B7ED0092B7ED00A2B7ED00B2B7ED06A
:101C70000C2B7ED00D2B7ED00E2B7ED00F2B7ED04A
:101C8000102B7ED0112B7ED0122B7ED0132B7ED02A
:101C9000142B7ED0152B7ED0162B7ED0172B7ED00A
:101CA000182B7ED0192B7ED01A2B7ED01B2B7ED0EA
:101CB0001C2B7ED01D2B7ED01E2B7ED01F2B7ED1C9
:101CC00000233EE00123B9E70223B7E70323B5E78A
:101CD0000423B3E70523B1E70B23AFE70C23ADE7FC
:101CE0000D23ABE70E23A9E70F23A7E70623A5E7FC
:101CF0000723A3E70823A1E709239FE70A239DE71A
:101D00000B239BE7092399E70A2397E70B2395E722
:101D10000C2393E70D2391E70E238FE70F238DE725
:101D200000238BE7012389E7022387E7032385E765
:101D3000042383E7052381E706237FE7FF237DE76D
:101D40000123037789E50223FBE70323F9E7042353
:101D5000F7E70523F5E70B23F3E70C23F1E70D2362
:101D6000EFE70E23EDE70F23EBE70623E9E7072371
:101D7000E7E70823E5E70923E3E70A23E1E70B2385
:101D8000DFE70923DDE70A23DBE70B23D9E70C2391
:101D9000D7E70D23D5E70E23D3E70F23D1E70023A1
:101DA000CFE70123CDE70223CBE70323C9E70423D1
:101DB000C7E70523C5E70623C3E70723C1E7FF23DA
:101DC000BFE70B7A002B5ED0012B00F0C180022B05
:101DD00000F0C080032B00F0BF80042B00F0BE8019
:101DE000052B00F0BD80062B00F0BC80072B00F017
:101DF000BB80082B00F0BA80092B00F0B9800A2BB9
:101E000000F0B8800B2B00F0B7800C2B00F0B680F0
:101E10000D2B00F0B5800E2B00F0B4800F2B00F0DE
:101E2000B380102B00F0B280112B00F0B180122B88
:101E300000F0B080132B00F0AF80142B00F0AE80C8
:101E4000152B00F0AD80162B00F0AC80172B00F0A6
:101E5000AB80182B00F0AA80192B00F0A9801A2B58
:101E600000F0A8801B2B00F0A7801C2B00F0A680A0
:101E70001D2B00F0A5801E2B00F0A4801F2B40F02E
:101E8000A3800A2300E00023C3754B7A002B00F0E7
:101E90009D80012B00F0FF80022B00F0FE80032BC1
:101EA00000F0FD80042B00F0FC80052B00F0FB808F
:101EB000062B00F0FA80072B00F0F980082B00F0C9
:101EC000F880092B00F0F7800A2B00F0F6800B2B2E
:101ED00000F0F5800C2B00F0F4800D2B00F0F38067
:101EE0000E2B00F0F2800F2B00F0F180102B00F091
:101EF000F080112B00F0EF80122B00F0EE80132BFE
:101F000000F0ED80142B00F0EC80152B00F0EB803E
:101F1000162B00F0EA80172B00F0E980182B00F058
:101F2000E880192B00F0E7801A2B00F0E6801B2BCD
:101F300000F0E5801C2B00F0E4801D2B00F0E38016
:101F40001E2B00F0E2801F2B40F0E18000233EE0DA
:101F5000002399E7002397E7002395E7002393E701
:101F6000082391E708238FE708238DE708238BE7F1
:101F7000012389E7012387E7012385E7012383E71D
:101F8000012381E705237FE705237DE705237BE721
:101F9000052379E7052377E7052375E7052373E72D
:101FA000052371E705236FE705236DE705236BE73D
:101FB000052369E7052367E7052365E7052363E74D
:101FC0000A2361E70A235FE7FF235DE70023037627
:101FD0000B7A002B00F09D80012B00F0DF80022B9C
:101FE00000F0DE80032B00F0DD80042B00F0DC80AD
:101FF000052B00F0DB80062B00F0DA80072B00F0C9
:10200000D980082B00F0D880092B00F0D7800A2B4C
:1020100000F0D6800B2B00F0D5800C2B00F0D48084
:102020000D2B00F0D3800E2B00F0D2800F2B00F090
:10203000D180102B00F0D080112B00F0CF80122B1C
:1020400000F0CE80132B00F0CD80142B00F0CC805C
:10205000152B00F0CB80162B00F0CA80172B00F058
:10206000C980182B00F0C880192B00F0C7801A2BEC
:1020700000F0C6801B2B00F0C5801C2B00F0C48034
:102080001D2B00F0C3801E2B00F0C2801F2B40F0E0
:10209000C18002233EE0002399E7002397E7002355
:1020A00095E7082393E7082391E708238FE70823A0
:1020B0008DE701238BE7012389E7012387E70123CC
:1020C00085E7012383E7052381E705237FE70523D0
:1020D0007DE705237BE7052379E7052377E70523DC
:1020E00075E7052373E7052371E705236FE70523EC
:1020F0006DE705236BE7052369E7052367E70523FC
:1021000065E70A2363E70A2361E70A235FE7FF2302
:102110005DE70523C3764B7A002B7DD0012B7FD062
:10212000022B7FD0032B7FD0042B7FD0052B7FD0B9
:10213000062B7FD0072B7FD0082B7FD0092B7FD099
:102140000A2B7FD00B2B7FD00C2B7FD00D2B7FD079
:102150000E2B7FD00F2B7FD0102B7FD0112B7FD059
:10216000122B7FD0132B7FD0142B7FD0152B7FD039
:10217000162B7FD0172B7FD0182B7FD0192B7FD019
:102180001A2B7FD01B2B7FD01C2B7FD01D2B7FD0F9
:102190001E2B7FD01F2B7FD105233EE00623B9E7FE
:1021A0000723B7E70823B5E70923B3E70023B1E71F
:1021B0000123AFE70223ADE70323ABE70623A9E73B
:1021C0000723A7E70823A5E70923A3E70A23A1E735
:1021D00000239FE701239DE703239BE7042399E75F
:1021E000052397E7062395E7072393E7082391E75D
:1021F00009238FE70A238DE70B238BE70C2389E75D
:102200000D2387E70E2385E70F2383E7002381E76C
:1022100001237FE7FF237DE706230377FFF71DBB3D
:102220000723FAE70823F8E70923F6E70023F4E792
:102230000123F2E70223F0E70323EEE70623ECE7AE
:102240000723EAE70823E8E70923E6E70A23E4E7A8
:102250000023E2E70123E0E70323DEE70423DCE7D2
:102260000523DAE70623D8E70723D6E70823D4E7D0
:102270000923D2E70A23D0E70B23CEE70C23CCE7D0
:102280000D23CAE70E23C8E70F23C6E70023C4E7E0
:102290000123C2E70223C0E7FF23BEE70B7A002B2E
:1022A0005ED0012B00F0C180022B00F0C080032B18
:1022B00000F0BF80042B00F0BE80052B00F0BD8035
:1022C000062B00F0BC80072B00F0BB80082B00F031
:1022D000BA80092B00F0B9800A2B00F0B8800B2BD4
:1022E00000F0B7800C2B00F0B6800D2B00F0B5800D
:1022F0000E2B00F0B4800F2B00F0B380102B00F0F9
:10230000B280112B00F0B180122B00F0B080132BA3
:1023100000F0AF80142B00F0AE80152B00F0AD80E4
:10232000162B00F0AC80172B00F0AB80182B00F0C0
:10233000AA80192B00F0A9801A2B00F0A8801B2B73
:1023400000F0A7801C2B00F0A6801D2B00F0A580BC
:102350001E2B00F0A4801F2B40F0A3800A2300E076
:102360000323C3754B7A002B00F09D80012B00F0F6
:10237000FF80022B00F0FE80032B00F0FD80042B79
:1023800000F0FC80052B00F0FB80062B00F0FA80AB
:10239000072B00F0F980082B00F0F880092B00F0E3
:1023A000F7800A2B00F0F6800B2B00F0F5800C2B49
:1023B00000F0F4800D2B00F0F3800E2B00F0F28083
:1023C0000F2B00F0F180102B00F0F080112B00F0AB
:1023D000EF80122B00F0EE80132B00F0ED80142B19
:1023E00000F0EC80152B00F0EB80162B00F0EA805B
:1023F000172B00F0E980182B00F0E880192B00F073
:10240000E7801A2B00F0E6801B2B00F0E5801C2BE8
:1024100000F0E4801D2B00F0E3801E2B00F0E28032
:102420001F2B40F0E18003233EE0032399E70323C1
:1024300097E7032395E7032393E7032391E7032318
:102440008FE703238DE708238BE7082389E7012320
:1024500087E7012385E7012383E7012381E7012340
:102460007FE701237DE709237BE7092379E702233F
:1024700077E7022375E7022373E7022371E702235C
:102480006FE702236DE705236BE7052369E7052363
:1024900067E7052365E7052363E70A2361E70A2366
:1024A0005FE7FF235DE7032303760B7A002B00F041
:1024B0009D80012B00F0DF80022B00F0DE80032BDB
:1024C00000F0DD80042B00F0DC80052B00F0DB80C9
:1024D000062B00F0DA80072B00F0D980082B00F0E3
:1024E000D880092B00F0D7800A2B00F0D6800B2B68
:1024F00000F0D5800C2B00F0D4800D2B00F0D380A1
:102500000E2B00F0D2800F2B00F0D180102B00F0AA
:10251000D080112B00F0CF80122B00F0CE80132B37
:1025200000F0CD80142B00F0CC80152B00F0CB8078
:10253000162B00F0CA80172B00F0C980182B00F072
:10254000C880192B00F0C7801A2B00F0C6801B2B07
:1025500000F0C5801C2B00F0C4801D2B00F0C38050
:102560001E2B00F0C2801F2B40F0C18002233EE0F2
:10257000032399E7032397E7032395E7032393E7CF
:10258000032391E703238FE708238DE708238BE7D5
:10259000012389E7012387E7012385E7012383E7F7
:1025A000012381E701237FE709237DE709237BE7F7
:1025B000022379E7022377E7022375E7022373E713
:1025C000022371E702236FE705236DE705236BE71D
:1025D000052369E7052367E7052365E70A2363E722
:1025E0000A2361E70A235FE7FF235DE70823C37639
:1025F0004B7A002B7DD0012B7FD0022B7FD0032B79
:102600007FD0042B7FD0052B7FD0062B7FD0072BCC
:102610007FD0082B7FD0092B7FD00A2B7FD00B2BAC
:102620007FD00C2B7FD00D2B7FD00E2B7FD00F2B8C
:102630007FD0102B7FD0112B7FD0122B7FD0132B6C
:102640007FD0142B7FD0152B7FD0162B7FD0172B4C
:102650007FD0182B7FD0192B7FD01A2B7FD01B2B2C
:102660007FD01C2B7FD01D2B7FD01E2B7FD01F2B0C
:102670007FD108233EE00923B9E70A23B7E70B23FC
:10268000B5E70C23B3E70D23B1E70E23AFE70F2324
:10269000ADE70223ABE70323A9E70623A7E7072358
:1026A000A5E70823A3E70923A1E70A239FE70B2354
:1026B0009DE70E239BE70F2399E7002397E701236C
:1026C00095E7022393E7032391E704238FE705238C
:1026D0008DE70B238BE70C2389E70D2387E70E2378
:1026E00085E70F2383E7002381E701237FE7FF23AB
:1026F0007DE709230377FFF7B0B80A23FAE70B2336
:10270000F8E70C23F6E70D23F4E70E23F2E70F2397
:10271000F0E70223EEE70323ECE70623EAE70723CB
:10272000E8E70823E6E70923E4E70A23E2E70B23C7
:10273000E0E70E23DEE70F23DCE70023DAE70123DF
:10274000D8E70223D6E70323D4E70423D2E70523FF
:10275000D0E70B23CEE70C23CCE70D23CAE70E23EB
:10276000C8E70F23C6E70023C4E70123C2E702231B
:10277000C0E7FF23BEE700BF144B1B7873B10023F3
:10278000032B11D8124A52F8232082421CD0013365
:10279000F6E70F4A002142F823100133032BF8D942
:1027A0000A4B01221A70EAE70023032B0AD8084AD1
:1027B00052F823200AB10133F7E7054A42F8230013
:1027C000002070470348704700207047F82600201B
:1027D000E8260020027000F0416200230B80416A6D
:1027E0004B80416A8B8080F82C3082621380826A31
:1027F0005380826A938080F82D3080F82F307047A4
:1028000038B504460D4601F050FAA3889BB253B187
:10281000638803EB83039A00083214442C6001F0B0
:102820004AFA002038BD2B6001F045FA0048F9E76C
:102830000B7000F038B504460D4601F036FAA38857
:102840009BB2BBB1628802EB82029300083323443F
:102850002B6063885A1CE18892FBF1F301FB132380
:102860009BB26380A388013B9BB2A38001F023FA53
:10287000002038BD2B6001F01EFA0148F9E700BFC7
:102880000B7000F010B582B00446002936D0012349
:102890000422C17EC07D01F0FFFF01230222217FBF
:1028A000207E01F0F9FF94F83130022B04D0032B85
:1028B00017D0002002B010BD00230122617F607E8E
:1028C00001F0EAFF00230422A17FA07E01F0E4FFD3
:1028D000607E617F0123019300930A4601F060FF4F
:1028E000E7E700230122617F607E01F0D5FF00232E
:1028F0000422A17FA07E01F0CFFFDAE700231A4671
:10290000C17EC07D01F0C8FF00231A46217F207ED2
:1029100001F0C2FF94F83130022B0ED0032BC8D146
:1029200000231A46617F607E01F0B6FF00231A463D
:10293000A17FA07E01F0B0FFBBE700231A46617FB4
:10294000607E01F0A9FF00231A46A17FA07E01F05E
:10295000A3FF607E617F00230193012300930A4659
:1029600001F01EFFA5E710B582B0FEF793FC20B181
:10297000044690F83130022B01D002B010BDFEF7B2
:1029800099FC2075637D022BF7D194F82E30002B33
:10299000F3D102A901F8013D6068FEF7B3FB237D86
:1029A00013B194F82F3033B1002384F82F306068CE
:1029B000FEF788FBE1E70028DFD19DF80730002B08
:1029C000DBD06068FEF75EFBD7E7000010B5044679
:1029D000FEF70AFB0021201DFEF7D6FA40B90021C0
:1029E00004F10800FEF7D0FA034610B1024B00E0F4
:1029F000014B184610BD00BF0E7000F038B50446FC
:102A000001F053F90546636B013B63631BB1284634
:102A100001F051F938BD034A0021012002F064FFA2
:102A2000F5E700BF4CEC000038B5044601F03DF975
:102A30000546636B33B1636B01336363284601F072
:102A40003AF938BD024A0121084602F04DFFF2E78B
:102A50004CEC0000F8B504460F46164601F025F987
:102A60000546A3889BB2E288934222D2238803EBD7
:102A70008303980008301422394620440BF060F993
:102A8000228802EB820293000833234433602388B8
:102A90005A1CE18892FBF1F301FB13239BB22380C4
:102AA000A38801339BB2A380284601F004F90020DB
:102AB000F8BD0023336001F0FEF80148F8E700BFDD
:102AC0000A7000F0F0B589B0012380F82D3090F83D
:102AD000323033BB066834360D46044601F0E5F863
:102AE00007460DF11F01194803F044FA10B99DF88B
:102AF0001F3023BB384601F0DEF82046FFF794FF75
:102B00002B686A68E16860680494114C039400249F
:102B100002940192012200923246FEF799FA09B01E
:102B2000F0BD012B03D0002380F82D30F7E70268B9
:102B3000136843F40053136006682836CCE7034853
:102B400003F0CEF92046FFF759FFD3E79434002075
:102B5000852B000010B590F83230012B0CD00068A6
:102B600002F0A0F8044603F08BFA00EBC0008300EB
:102B7000B3FBF4F0013010BD006801F083FF0446A0
:102B8000F1E7000070B584B0144603A9906AFFF71E
:102B900037FE05462046FFF7DDFF00230193009333
:102BA00023461D4A01461D4803F004FA1C4B9D4272
:102BB00020D0039B00221A619A6001F076F8064645
:102BC000039AD56825B15368126800212046A847AA
:102BD00003A9A06AFFF72EFEA06A83889BB263B99F
:102BE000002384F82D3094F83230012B0DD030467C
:102BF00001F061F8012004B070BD03A9FFF700FEE9
:102C000003992046FFF75EFFF1E72268136823F47B
:102C100000531360EBE700BF252C00009434002024
:102C20000B7000F010B582B00C4691F83230012BD9
:102C300012D10B689B68C3F3C00393B92046FFF71A
:102C400089FF0023019300932346084A0146084860
:102C500003F0B0F902B010BD0B681B69C3F3401359
:102C6000EBE72046FFF7CAFEF4E700BF252C000083
:102C7000943400202DE9F04704460E461546FEF731
:102C80006FFB804610B14046BDE8F087092001F097
:102C900025F80746A36A9B889BB23BB194F82E3077
:102CA00023B9002FF6D0FEF75DFAF3E794F832303F
:102CB00093B923681B6903F00209B9F1000F02D12F
:102CC0002046FEF70DFB012384F8303094F83230B3
:102CD00063B1012B1AD128E0012B02D04FF000097B
:102CE000EEE723689B6803F00209E6E76F1E45B133
:102CF00006F1010A3178206802F0C2F83D465646D6
:102D0000F4E723681B6913F0200FFAD0B9F1000F24
:102D1000B9D12046FEF708FBB5E706F1010A317884
:102D2000206801F0C1FE3D4656466F1E002DF4D1CD
:102D300023689B6813F0080FFAD0E7E7A0B110B53D
:102D4000044690F82E303BB194F82E300133DBB2BC
:102D500084F82E30002010BDFEF7ACFA0028F3D125
:102D60006068FEF78FF9EFE700487047027000F0E7
:102D7000C8B110B5044690F82E30B3B190F82E309B
:102D8000DBB2012B07D094F82E30013BDBB284F884
:102D90002E30002010BDFEF78DFA0028F3D16068B8
:102DA000FEF790F9EFE7024870470248F2E700BFEC
:102DB000027000F0057000F090F83130022B03D063
:102DC000012B2FD000207047437D6BB1012B15D014
:102DD000037DEBB9837E807F03EB4303190101225E
:102DE0008240234B5A50EDE7837E807F03EB430301
:102DF0001901012282401E4B5A50E3E7837E807FF7
:102E000003EB43031901012282401A4B5A50D9E7C0
:102E1000837E807F03EB4303190101228240154B1F
:102E20005A50CFE730B583B00446037D83B102AD7D
:102E3000132305F8013DFFF781FF012229462046B3
:102E4000FFF718FF2046FFF793FF002003B030BDC7
:102E500002AD112305F8013DFFF770FF012229465D
:102E60002046FFF707FF2046FFF782FFEDE700BF90
:102E70000CA000440CA0004610B504460749407F52
:102E8000FEF7CEF9FEF7BEF90023A37523750223E2
:102E900063752046FFF790FF10BD00BF6729000053
:102EA000F0B589B006460F4601AC6D4D0FCD0FC48D
:102EB00095E8070084E80700002E00F0CA80002F84
:102EC00000F0C98035463822002130460AF043FF21
:102ED0003046FEF7DBF93046FFF74EFC0646002889
:102EE00040F0BA803B7C85F831303B682B60002392
:102EF00085F832303B685B4A93420AD05A4A934283
:102F000073D05A4A934278D0594A93427DD0594E51
:102F1000A2E0594B2B62594BEB604FF440232B61DD
:102F2000FA69B9692846FFF757FC7B6803937B89E8
:102F3000ADF81430BB89ADF81230BB7B8DF8103082
:102F4000FB7B8DF8163005238DF8113001214C489C
:102F500000F070F901214B4800F06CF90121286A5A
:102F600000F068F908A9002301F81C3D386801F059
:102F7000FFFE3A68936F23F4F85323F01F03397A66
:102F800043EA0123797A0B4393673B6803225A672C
:102F900039462846FEF7F8F9064600285CD101219B
:102FA0002846FFF76FFC0646002855D100F07DFE4D
:102FB00004463B7C032B30D0022B41D03B684FF0C2
:102FC000FF329A643B7C032B3ED00421386801F029
:102FD00091FE3B684FF44062DA602846FFF7F6FC4A
:102FE0000646204600F067FE36E0274B2B62274B53
:102FF000EB604FF450232B6192E7254B2B62254B5E
:10300000EB604FF460232B618AE7234B2B62234B49
:10301000EB604FF470232B6182E797F8203097F82C
:1030200021103A6843EA0123D3673A68536E43F0AC
:10303000040353663A68536F43F030035367BDE7A8
:103040002846FFF719FFB9E70521386801F052FE5D
:10305000BFE7134E00E0074E304609B0F0BD00BF99
:1030600020EC000000000140000401400008014085
:10307000000C0140037000F00042040001000C004D
:103080004041050000350A000052040001000D0017
:103090000062040001000E000072040001000F0035
:1030A000027000F070B586B004460E461546FEF775
:1030B00057F9034650BB01960295039500230493EC
:1030C000174B059394F832301BBB23681B6903F040
:1030D000020313B92046FEF703F96A4601A9A06A64
:1030E000FFF7B8FC034688B9A36A9B889BB2012B03
:1030F000FAD800992046FFF7E5FC012384F8303028
:1031000094F82D30002BFBD1009B1B69184606B0AC
:1031100070BD012BDED123689B6803F00203D8E762
:10312000017000F00C4B984208D90C4B984202D920
:103130000221012204E001210A4601E000210A46A1
:10314000074B1A60074AD2F8003123F0807343EA34
:103150000163C2F8003170470048E8010090D003D5
:103160004000C84300400E40014B1868704700BF44
:10317000D012002010B4124B5B68002300E0013332
:10318000042B0BD80F4A02EBC3021479CAB2944243
:10319000F5D10C4A52F833208242F0D3052B0DD0E2
:1031A000084A02EBC3035979054A536823F0407378
:1031B00043EA016353605DF8044B70470321F3E772
:1031C00000000E4054EC000003300F2828BF0F20F1
:1031D0000007704708B5FDF7F7FC044BD3F8003142
:1031E000C3F3042303FB000008BD00BF00400E40F2
:1031F00010B5074B1C6C41F671321A64FDF7E0FC08
:103200000021FFF7B7FF14B1014B00221A6410BD73
:1032100000000E4010B5064B1C6C41F671321A646A
:10322000FFF7A8FF14B1024B00221A6410BD00BFC3
:1032300000000E40C0F30323013B092B3AD8DFE81E
:1032400003F005083939180B0E39111500221A4BF5
:1032500011E00022194B0EE00122194B0BE0102265
:10326000184B08E04FF48032174B04E00022174B54
:1032700001E00022164BC0F30430A2B110B40E4C92
:10328000D4F8444114F0010F04D10B4CD4F8404160
:103290002242FAD103F1047300EBC3008000016005
:1032A0005DF8044B704703F1047300EBC30080002A
:1032B00001607047704700BF00400E40C0400E40A4
:1032C000E0400E40E8400E40F0400E4050410E40BD
:1032D000B0400E40C0F30313013B092B69D8DFE86F
:1032E00003F0050B111B68682127415F334BD3F8AE
:1032F0000001C0F304207047304BD3F81401C0F331
:10330000042070472D4BD3F80001C0F30060431C2C
:103310000120984001387047284BD3F80C01C0F3C6
:1033200008207047254BD3F80801C0F308207047E8
:10333000234B984204D0234B98420AD00020704778
:103340001E4BD3F8203103F00F03012098400138C1
:1033500070471A4BD3F82031C3F301130120984072
:1033600001387047184B984207D003F5B01303F5A6
:10337000805398420AD000207047104BD3F8283170
:10338000C3F3011301209840013870470B4BD3F869
:103390002801C0F30120031D012098400138704727
:1033A0000A4B984207D1054BD3F8300100F00300D7
:1033B0007047002070470020704700BF00400E405B
:1033C0008006160080162E0090171A00A00914001F
:1033D00008B5FFF77FFF013008BD000000F00F00C7
:1033E000013807286DD8DFE800F0041B2C6C405131
:1033F0006C5B3B4BD3F8943003F00703023B052B87
:103400000CD8DFE803F0056003070B0902207047C2
:10341000042070470B2070470C2070470520704730
:103420002F4BD3F8803003F00703022B4DD0042B31
:1034300005D0012B01D001207047032070470A20DE
:103440007047274BD3F8843003F00703013B032B6D
:1034500009D8DFE803F0023C0604032070470A2085
:10346000704706207047012070471D4BD3F8883005
:1034700003F00703022B2CD0042B05D0012B01D025
:1034800001207047032070470A207047144B1B6FC0
:1034900013F001031FD00BB10920704701207047C2
:1034A0000F4BD3F85C3103F03003202B05D0302BC9
:1034B00005D0102B11D00120704704207047082040
:1034C0007047002070470320704702207047022099
:1034D000704702207047072070470720704700BFE1
:1034E00000400E4010B50446FFF778FF1C4B9C428D
:1034F00012D01C4B9C4215D01B4B9C4206D001386D
:1035000003282BD8DFE800F014171D1A174BD3F847
:10351000800000F00700F2E7144BD3F8840000F0BD
:103520000700ECE7114BD3F8880000F00700E6E74E
:10353000FDF7AEFB13E0FDF7B1FB10E0FDF7ABFBD1
:103540000DE0FDF741FB094BD3F80031C3F30063F5
:103550005A1C01239340B0FBF3F000E0002010BDA3
:10356000030020000500240002001E0000400E4061
:1035700008B50748FFF732FF072804D0092805D10E
:10358000FDF722FB08BDFFF7EFFDFBE70020F9E7A1
:1035900006000E0008B10020704710B504460A4826
:1035A000FFF71CFF072805D0082809D0042804D0FD
:1035B000204601E0FFF7D8FD10BDFDF743FBFBE718
:1035C000FFF708FEF8E700BFB800320038B500F496
:1035D0007813B3F5B01F00F08E80054631D8B3F5EF
:1035E000202F76D015D9B3F5602F00F0A7801AD917
:1035F000B3F5801F00F0A580B3F5A01F11D154488A
:10360000FFF770FF534BD3F8303103F00303D8407A
:1036100053E0B3F5003F5FD0B3F5802F4ED0002BC1
:1036200049D0002049E0B3F5402FFAD1FDF7CCFA9C
:10363000484BD3F81431C3F304230133B0FBF3F048
:103640003BE0B3F5101F75D012D9B3F5401F63D01E
:1036500024D9B3F5481F77D0B3F5781FE1D1FDF732
:10366000B3FA04462846FFF7B3FEB4FBF0F024E0BB
:10367000B3F5F01F3BD0B3F5001F49D0B3F5D01F11
:10368000CFD13548FFF72EFF324BD3F82821C2F3B4
:10369000011201239340B0FBF3F00EE0B3F5381FA5
:1036A000BFD12E48FFF71EFF2A4BD3F82031C3F3BA
:1036B0000113D84001E0FDF787FA38BDFDF784FA21
:1036C000244BD3F80C31C3F308230133B0FBF3F0E0
:1036D000F3E7FDF779FAF0E7FDF776FA1D4BD3F83B
:1036E0000831C3F308230133B0FBF3F0E5E71B48CF
:1036F000FFF7F8FEE1E71948FFF7F4FE154BD3F8A2
:10370000202102F00F0201239340B0FBF3F0D4E735
:103710001148FFF7E7FED0E70F48FFF7E3FE0D4B38
:10372000D3F82831C3F301231A1D01239340B0FBC2
:10373000F3F0C2E70648FFF7D5FEBEE7FFF718FF34
:10374000BBE7FFF711FDB8E70020FFF723FFB4E761
:103750000500240000400E400300200002001E006F
:10376000014B1868704700BFC4120020014B18803D
:10377000704700BFD41200200138032818D8DFE8B2
:1037800000F00211070C0B4B186AC0F308007047D9
:10379000084B186900F07F007047064B986900F0ED
:1037A0007F007047034BD3F89C00C0F30A007047BA
:1037B0000020704700400E4038B50138032811D86A
:1037C000DFE800F0022B111EC1F308011D4B1B683E
:1037D000002BFBD11C4A136A23F4FF7323F001036F
:1037E0001943116238BD01F07F01184B1B68002B93
:1037F000FBD1154A136923F07F0319431161F1E7E7
:1038000001F07F01124B1B68002BFBD10E4A93691C
:1038100023F07F0319439161E4E70C460A4DD5F884
:1038200090306B6A23F0300343F010036B62C1F3F6
:10383000C310FFF7C9FC2B6B064919402143014314
:103840002963CFE76828C84300400E406028C8437A
:103850006428C84300F8FF0F124B5B6A13F0300F67
:1038600009D0202904D0302916D0A9B10E4A04E08D
:103870004FF4000201E04FF440020A4BD3F89030BD
:1038800032EA0303F9D112F4800F08D0054BD3F8C4
:10389000A000C0F3802070474FF44002EDE7012004
:1038A000704700BF00400E40FF33E10702280DD1F2
:1038B00010B529B1064B4FF48064C3F8A84059668F
:1038C0000AB9012010BDFFF7C7FFFBE701207047D1
:1038D00000400E40F8B504287FD8DFE800F0120D54
:1038E00019030800022301260024354614E0202392
:1038F0001026042405250FE08023402606240725F2
:103900000AE04FF400734FF480760824092503E0A1
:10391000082304260224032500294DD0022830D094
:1039200000212E4B1E662E4B23449B001B68002B50
:10393000F9D0002A51D02A4C2C44A4002368002B33
:10394000F9D0022849D1002947D0244B5B6A13F0F3
:10395000010F2CD001222021FFF7A8FF0220FFF742
:103960000BFF0546012200210220FFF7B3FF294685
:103970000220FFF721FF194B1E662368002BFCD0A5
:103980002BE0164B5B6A13F0300F0ED1154BDB6B3F
:10399000124B5B6A13F0010FC3D0104F7B6A23F008
:1039A000300343F010037B62BBE70021B9E700213D
:1039B0000220FFF751FFD1E708490B66074BD3F808
:1039C00090100123A3401942F8D132B1034BD3F830
:1039D00090200123AB401A42F8D1F8BD00400E40C0
:1039E0008004F21000300E4070B504460D461128D8
:1039F0000CD0002604F00F04013C072C00F2988044
:103A0000DFE804F01E701C966E9796A3042903D07D
:103A100005290BD00026EDE7FDF714F90646002E28
:103A2000E8D00021304600F045FCE3E7FFF798FEC0
:103A300006465F4B9842F2D80026DBE75D4C52E029
:103A4000023D0A2D74D8DFE805F00615090F7373DF
:103A50007373731849000020042410E05648FFF7E0
:103A600061FB022004460AE05348FFF75BFB03209A
:103A7000012404E00120032401E0032005240122A5
:103A80001146FFF727FFFFF7B3FB46B14B4B1B680F
:103A900013F0400F03D14A4B1B68002BFBD1494B5D
:103AA0005C67FDF7BDF80446FDF78EF8FFF73AFBBB
:103AB000424B1B6813F0400F03D1414B1B68002B96
:103AC000FBD1414B5968C1F301412046FFF7A2FBEE
:103AD00076BB0121002000F0EDFB29E00724D2E7AE
:103AE0003A4C00E03A4C013D092D21D8DFE805F0C1
:103AF00005070E2020152020201E002317E001229C
:103B000011460020FFF7E6FE022310E001221146D5
:103B10001046FFF7DFFE012309E0FDF755F8FFF738
:103B200001FB2C4B01221A60032300E004232360D5
:103B300070BD072D05D0092DFAD1224B01221A673D
:103B4000F6E7204B00221A67F2E7013D072DEFD878
:103B500001A353F825F000BF793B0000313B000082
:103B6000313B00008B3B0000313B0000313B00004B
:103B70007D3B0000993B000000210EE00122114630
:103B80000420FFF7A7FE012107E0012211460220D1
:103B9000FFF7A0FE022100E003210A4AD2F85C31BF
:103BA00023F0300343EA0113C2F85C31C0E700BFE1
:103BB000002D310184400E400148E8013C300E40A8
:103BC000C800C64300400E4000300E4088400E4002
:103BD00080400E400816C84370B504461120FFF718
:103BE000FDFB012200210220FFF774FE237C022B43
:103BF00029D00022154E736A23F001031343736228
:103C00002278134B1A60A288637A43EAC223F362D4
:103C1000356B05F07F65E08845EAC025A07A05434D
:103C2000207A45EAC015FFF7CFFA28433063627B5C
:103C3000A37B1B0143EA0233E27B1343227B43EA6B
:103C40000243736370BD0122D4E700BF00400E4001
:103C5000A004C84338B505461120FFF7BFFB0D4A45
:103C6000916B0D4B0B402C781C436B7844EAC324BA
:103C7000AB7844EA0364EB7844EA0324936BA342F1
:103C800006D0012200210846FFF724FE014B9C6369
:103C900038BD00BF00400E4080E4FFF8EFF3108015
:103CA00072B6704700B962B67047EFF311806023B7
:103CB00083F31188704780F3118870474209064BDF
:103CC00053F8223000F01F0023FA00F080F00100CA
:103CD00000F00100704700BF00E100E038B5EFF3ED
:103CE000108313F0010F35D1C5B20446FFF7E6FF8C
:103CF000034680BB002C21DB04F1604000F56140ED
:103D000090F800134909EFF3118212B1B1EB521F81
:103D100023D2134A5268C2F30802E2B1103AD2B277
:103D200050B2002810DB00F1604000F5614090F8CF
:103D30000023520991420ED301230CE005F00F0538
:103D4000084A515D4909DEE702F00F020548825C2E
:103D50005209EFE70123184638BD0123FBE700BFF6
:103D600000ED00E014ED00E0114B1B6813F0400F74
:103D700016D10F4B1B6813F0400F03D10D4B1B687E
:103D8000002BFBD10C4B1A68C2F301225B68C3F312
:103D900001439A4205D8084A136823F010031360C0
:103DA0007047054A136843F010031360704700BF63
:103DB0003C300E40C800C64300300E40074B1B6825
:103DC00013F0100F05D0064B1B69C3F30443082BF7
:103DD00000D07047034B044A1A60FAE700300E40E7
:103DE00000400E40C4120020C0EA21011A48C26CF3
:103DF000C2F30322194B1B8803F1280103EB510383
:103E00002833013202EB8201B3FBF1F3013B072BB4
:103E100028BF0723C16C21F0EE6141EA036343F43C
:103E20008013C3640E4BB3F90030002B13DB9BB23D
:103E300003F1280103EB51032833510801EB42023F
:103E4000B3FBF2F3072B28BF0723026D22F07002A9
:103E500042EA03130365704700300E40022700203A
:103E600004270020024B1880024B1980704700BFC6
:103E7000022700200427002010B1012804D0704739
:103E8000034B044A9A657047014B034A9A65704791
:103E900000300E4077402057372110B71A4BD3F827
:103EA0008031032929D8DFE801F002121518DBB2AE
:103EB0004AB91B0333F4704121D11448C16E21F477
:103EC00070411943C166012A09D001207047C3F32C
:103ED0000723EDE7C3F30743EAE71B0EE8E71B03FD
:103EE00033F470420DD10949D1F8EC2022F470422C
:103EF0001343C1F8EC3001207047002070470020C8
:103F000070470020704700BFB081E00F00300E40C6
:103F10001B02DAB10122134340F20112934237D05F
:103F2000B3F5817F14D340F20122934237D01CD9DC
:103F3000B3F5407F41D040F20132934244D1244B4B
:103F4000D3F878311A0EC3F307431EE00022E2E7EC
:103F5000012B14D053B3B3F5807F35D11C4BD3F86C
:103F60006C311A0EC3F307430FE0B3F5007F2BD17A
:103F7000174BD3F87031C3F30722DBB205E0144BC3
:103F8000D3F87431C3F30722DBB203600A607047D1
:103F90000F4BD3F874311A0EC3F30743F5E70C4BFC
:103FA000D3F87831C3F30722DBB2EEE7084BD3F83E
:103FB0006C31C3F30722DBB2E7E7054BD3F870316E
:103FC0001A0EC3F30743E0E700221346DDE700BF04
:103FD000B081E00F10B5002854D0444B1B6813F09B
:103FE000400F07D1424B1B78C3F1020210239340CC
:103FF000404A1361404AD2F8804104F0010445F67A
:104000000E03C2F880313D4B1B6803F0010003F042
:104010001001084303F04001084303F00401014389
:1040200003F480730B431366304B1B6813F0400F8F
:1040300003D1334B1B68002BFBD12E4B1B6813F0B5
:10404000100F0DD02C4BD3F8403113F0807FF9D1F5
:104050002C4B1A68284B1A612B4B1B78052B2FD041
:10406000294B197805293DD1244B1B6813F0010F0A
:1040700002D1214B02221A661CB11F4B0022C3F849
:10408000802110BD1C4BD3F890201C4B1A601120CE
:10409000FFF7A4F91C4B1870144B1B6813F0400F6A
:1040A00003D1174B1B68002BFBD1124B5B68C3F38A
:1040B00001430F4A1370104B1A69124B1A60E0E764
:1040C000124B1868094B1B6813F0400F03D10C4BBF
:1040D0001B68002BFBD1074B5968C1F30141FFF767
:1040E00099F8BDE71120FFF77FFCBDE73C300E409B
:1040F0000D27002000300E4000400E40FC2600201E
:10410000C800C6430827002006270020C41200204C
:104110007047000038B50446D8B9FFF725FE164AA7
:10412000136943F004031361FFF7F2FF134B1B689D
:1041300013F0100F11D130BF01F050FDB4B10120C8
:10414000FFF748FF0E4A136823F00043136084B161
:1041500038BD0020FFF73EFFDFE7FFF79FFD054674
:104160000AF0B6FA2846FFF79DFDE5E7FFF726FEC1
:10417000E8E7FCF755FDEBE700ED00E000300E400E
:104180004C310E4038B5044658BBFFF7EDFD1E4BD1
:10419000D3F8802145F60E01C3F880114FF4207149
:1041A000196612F0010F02D00022C3F88021174ACD
:1041B000136943F004031361FFF7AAFF144B1B6854
:1041C00013F0100F11D130BF01F008FDB4B1012080
:1041D000FFF700FF0F4A136823F00043136084B118
:1041E00038BD0020FFF7F6FECFE7FFF757FD054685
:1041F0000AF06EFA2846FFF755FDE5E7FFF7DEFD0A
:10420000E8E7FCF70DFDEBE700400E4000ED00E0B5
:1042100000300E404C310E4008B50020FFF7DAFEAA
:1042200008BD08B50120FFF7D5FE08BD1D4B1B6872
:1042300013F0400F34D11B4B1B6813F0400F03D118
:10424000194B1B68002BFBD1184B5B68C3F3014370
:10425000984225D070B50D460446154BD3F8003171
:10426000FCF7B2FC0646022C11D0C4F10202102366
:1042700093400E4A136145B10A4B1B6813F0400F7F
:1042800003D1094B1B68002BFBD124B170BD022167
:10429000FEF7C0FFE9E700213046FEF7BBFFF5E778
:1042A000704700BF3C300E40C800C64300300E408F
:1042B00000400E4038B5114B1B6813F0400F0BD176
:1042C0000D4650B10E4B1B7813B10E4B98420FD9CF
:1042D00029460020FFF7AAFF38BD0B4BD3F8000199
:1042E000C0F30420441CFCF76FFC04FB00F0E9E77A
:1042F00029460220FFF79AFFEEE700BF3C300E4050
:104300000C270020002D310100400E4008B5027836
:10431000034B1A7001210020FFF7CCFF08BD00BF3E
:104320000C270020074A136823F44073417843EABE
:10433000012313604378022B00D07047024B5B6A65
:10434000FBE700BF00300E4000400E40134B9A695F
:1043500022F03F020378D3B104234178C9B102218E
:104360000B438178B9B108210B43C178012900D0F2
:1043700000210B4301790B431343084A93611368EF
:1043800023F44033417943EA01431360704700232B
:10439000E3E70021E4E70021E6E700BF00300E403C
:1043A00010B42B4B5A6B4AF6E8515963284B9B6F5C
:1043B00013F0010FFAD1264B1B6C13F0030302D04C
:1043C000244901240C60D9B2814220D0032B00D0B3
:1043D0001BB9431EDBB2012B1FD91D4B9B6F13F082
:1043E000010FFAD11A490B6C23F0030303430B644A
:1043F000174B9B6F13F0010FFAD1003018BF01204B
:10440000144B1860012A1ED05DF8044B7047002839
:10441000FAD1104B00221A60F6E70D4B4FF4002141
:10442000D9620B4B9B6F13F0010FFAD108490B6C4B
:1044300023F0030343F001030B64054B5B6A13F4A1
:10444000002FFAD0C9E7024B00225A63DCE700BF15
:1044500000300E40B40AC6432DE9F04F89B0002366
:10446000059306930793029303930493A0F5E163E6
:10447000B3F5966F00F2A580B0F5E16F8CBF4FF0F9
:1044800001094FF0000965D94FF4966A4FF4E165D0
:10449000B0F5E16F63D9534BD3F868311C0E049427
:1044A000C3F3074307930192009104464E4EF76C05
:1044B000C7F301773B464A4602A905A8FFF728FD46
:1044C000D6F8EC30C3F3012843464A4603A906A8B0
:1044D000FFF71EFD651B0799049B5B1A03FB05F3A1
:1044E000B3FBFAF30B44DDF808B0DDF814C0ABEB16
:1044F0000C0606FB05F6B6FBFAF66644DDF80CE0A2
:104500000698AEEB000202FB05F5B5FBFAF5054493
:10451000049A9A425AD399425AD8AE455AD3A842DD
:104520005AD8B3455AD3B4455AD8019A72B12E4AD3
:10453000D26D22F4FE4222F0020242EA0323B4F5D5
:10454000E16F15D902221343274AD365009B8BB92B
:10455000012337E04FF4167A4FF4966598E7214B24
:10456000D3F86831C3F307240494DBB207939AE7C6
:104570000022E8E7002239464846FFF78FFC034651
:1045800000B3012241464846FFF788FC0346C8B104
:104590003246AE4238BF2A46E72A28BFE7221249F0
:1045A000496E21F4FF7121F0010141EA4202B4F5A4
:1045B000E16F04D901210A430B494A6602E0002158
:1045C000F9E70023184609B0BDE8F08F0023F9E7AA
:1045D0000023F7E70023F5E70023F3E70023F1E7E3
:1045E0000023EFE7B081E00F00300E4008B5224A0B
:1045F000136F03F00703D26C12F0010F08D0012BE8
:1046000006D9132821D91438132820D8082325E0E7
:10461000194AD26C12F0010F01D1012B08D9164AA8
:10462000D26C12F0010F18D0012B08D9002315E02D
:1046300009280ED90A3809280DD808230EE02728A2
:1046400001D910230AE0082308E0042306E0102320
:1046500004E0042302E0102300E00023013B1A03DE
:1046600042EA03220449CB6C23F47F431343CB6417
:10467000FFF7BCFB08BD00BF00300E4008B5064B7D
:104680001B68064A136F23F0070318431067044B97
:104690001888FFF7ABFF08BD8009C64300300E4005
:1046A0000027002008B5084AD36E43F08073D36614
:1046B000064B1B681BB90020FFF7E0FF08BD042074
:1046C000FFF7DCFFFAE700BF00300E408009C64369
:1046D00038B5304B02229A639B6B03F00F03934271
:1046E00002D00025284638BDB0F90C10C3884A2BEB
:1046F00009D9B3F5FA7F42D340F6C312934241D8A9
:104700004FF0005200E00022224BDB6C23F04053BC
:1047100023F00103002938DB012104460A43134337
:104720001C4AD364D2F8EC3043F44073C2F8EC3046
:104730008288194B1A80FFF7B5FFB4F90C10208955
:10474000FFF790FBA088FFF751FFA07BFFF794FBDA
:10475000012211466088FFF77FFE05460028C1D080
:104760000C4AD36B43F48063D3636078FFF718FE81
:10477000A37A202B0BD00022084B1A60B2E74FF02F
:104780008052C1E74FF04052BEE70021C5E7012249
:10479000F2E700BF00300E40002700209407C64318
:1047A0002DE9F8430C4616461F46072A3ED89300CB
:1047B0000F2505FA03F800FA03F5FFF76FFA2E4B01
:1047C0001A68554005EA080555401D60FFF76AFA6A
:1047D0004FF00008072E3ED94FEA8808032505FA56
:1047E00008F504F0030404FA08F4FFF757FA234B22
:1047F0001A6854402C4054401C60FFF753FA204B79
:1048000033449B001F601F4B33449B009DF82020C6
:104810001A600123B3401C4AC2F824341B4B3344B2
:104820009B009DF824201A60BDE8F883A2F10808D7
:104830004FEA88030F2505FA03F900FA03F5FFF79D
:104840002DFA134B1A68554005EA090555401D60BD
:10485000FFF728FABEE7B30003259D4004F00304E8
:104860009C40FFF71BFA0B4B1A6854402C405440F5
:104870001C60FFF717FAC2E700A400400CA4004038
:1048800080208510A020851000A0004040218510C8
:1048900004A4004008A40040F0B414463AB143B365
:1048A00000EB4002160101258D40264A955107294B
:1048B00027D8254E45002F183A01324452688F0000
:1048C0004FF00F0C0CFA07FC22EA0C0204FA07F76F
:1048D0003A4305442F013E44726044B94BBB00EBA0
:1048E00040000201012303FA01F1184B9950F0BC7A
:1048F000704700EB4002160101258D40134A955187
:10490000D5E7114F460035182A013A44956801F160
:104910008042083A92004FF00F0C0CFA02FC25EA94
:104920000C0504FA02F22A4335182E013744BA6006
:10493000D3E700EB40000201012303FA01F1014B30
:104940009950D4E70CA0004600A000400CA0004401
:1049500081F00101024B03449B001960704700BFC6
:10496000A001F11010B5044601214FF4AA40FEF752
:1049700061FC23786178A27842EA012242EA03626C
:104980000B4B1A6000221A62DA625A634FF000423F
:10499000DA664FF0FF329A66064A4FF40071C2F8A9
:1049A0008011E3785B01DBB282F80933116010BD3E
:1049B00000200E4000E100E0F8B50C46C3B201252E
:1049C0009D400B68254E470007EB000C4FEA0C1189
:1049D0003144C1F88030637BC1F8883094F80AC054
:1049E000E37A1B0543EA0C4394F80CC043EA4C53AA
:1049F000C1F8843022F00302C1F89820B566FFF7B1
:104A000054F9F36E2B43F366237A13B1736B2B4384
:104A10007363637A1BB1114AD36A2B43D3620F4B82
:104A20001B68227922B1D243120262F47F42134002
:104A300062790AB143EA0223A2791AB1D24362F041
:104A4000FF021340E27902B11343044A1360044B9E
:104A50001D60D563FFF72FF9F8BD00BF00200E40A1
:104A600028200E44064B0B4003F58073B0FBF3F295
:104A700003FB12000002B0FBF3F000EB02207047D2
:104A8000F8FF0100064B984201D00020704710B596
:104A900004460448FEF79AFDE168FFF7E3FF10BD06
:104AA00000A0044090171A00836813F0100FFBD089
:104AB000036C13F0010F03D1436C13F0400FFBD1D3
:104AC0008162704710B44A790B784C7843EA8403CA
:104AD0008C7843EA8413CC7843EA04130C7943EAD4
:104AE000C42343EA02338A7943EA42430430000193
:104AF000024A13505DF8044B704700BF0020044089
:104B0000014B1860704700BF0000844203780BB36C
:104B10000123427802B3042213438278F2B11022B7
:104B20001343C278E2B120221343027943EA0223FD
:104B3000427943EA02338279A2B14FF4004213432F
:104B4000C27943EA0243027A72B900221343084A47
:104B5000136070470023DCE70022DDE70022DFE777
:104B60000022E1E70022EAE74FF40032EEE700BF5F
:104B7000002004400B4A53699B0003F03C03116979
:104B8000C1F381110B438370136903F03F0343703A
:104B9000936903F0F003D269C2F303121343037065
:104BA000704700BFD0FF0FE041F080018165704782
:104BB00070B5054616461C46084641B1202C22D049
:104BC00009D9402C1DD0602C1AD1042205E00F48D1
:104BD000FEF7FCFCF2E79CB9102206FB02F2530838
:104BE00003EB4010B0FBF2F02038094B03EAC000A1
:104BF0002B6823F060032B602B681C432C606861DA
:104C000070BD0622E9E70822E7E700BF4041050042
:104C1000F8FF7F002DE9F8438146214808409AB902
:104C2000202B37D0402B0AD023B140244FF000086E
:104C300001260DE010244FF00008012608E0802432
:104C40004FF00008032603E080244FF000080126FF
:104C500000F5807006FB00F6002532462B464846DC
:104C6000294608F0B5FE074632462B4648462946F7
:104C700008F0AEFE04FB07F704FB03F308FB023861
:104C8000A4FB0201414432462B4608F0A1FE384401
:104C9000BDE8F88320244FF000080126D8E700BFC4
:104CA000F8FF7F0038B50446036813F0010F0BD1FD
:104CB00000250648FEF78AFC2368616903F060035B
:104CC0002A46FFF7A7FF38BD0125F2E7404105005E
:104CD00038B505461446084631B101386400B0FBCA
:104CE000F4F00002686138BD0148FEF76FFCF4E79C
:104CF00040410500CB435B0003F00A03C360C16081
:104D00007047000040F6AA63C3600023036041F2CD
:104D10000502426083604361C364134A8264036690
:104D200043678367C367114B98420BD003F58063D9
:104D3000984207D003F58063984203D003F580635F
:104D4000984201D1002303650023836503F180436A
:104D500003F58233984203D003F50063984201D1F2
:104D60000023C365704700BFF9FF01000000014048
:104D700038B505460C46FFF7C5FFA37C1BB12B6871
:104D800043F080432B60E37C33BB637B228A134375
:104D9000E28913436B60237BA26861682846FFF7B2
:104DA00007FF637D1BB12B6843F480332B60A37D29
:104DB0001B0703F0E043E27D120502F4E002134317
:104DC0002B666B6F23F030036B676B6F227E134390
:104DD0006B672378EB6038BD217D2846FFF7E4FE42
:104DE000D3E738B505460C46FFF78CFF2A68238ABF
:104DF00043F00103A17B00292DD04FF480610B43C8
:104E000013432B602B68227D3AB34FF000521343BB
:104E10002B60A37C1BBB237B43F480536B60A26895
:104E200061682846FFF754FF637B0BB11023EB60EA
:104E3000637D1BB12B6843F480332B60A37D1B077C
:104E400003F0E043E27D120502F4E00213432B6617
:104E50002378EB6038BD0021D1E70022D7E7E17C61
:104E60002846FFF7A1FED6E7036913F0400FFBD0F9
:104E70004163036913F0200FFBD0C069C0B27047D3
:104E8000036913F0400FFBD04163704738B5044607
:104E900003F015FB044D0FCC0FC594E80F0085E817
:104EA0000F00002038BD00BF1027002047F6FF7319
:104EB0009A4276D0022976D8F0B40D463C4B03EBEB
:104EC000C1008478012CB8BF0124204613F831308A
:104ED000012B24D0364B03EBC1035C68002C64D05B
:104EE000B4F90060964204DBB4F90260964200DC3B
:104EF0001646A388FF2B26D02827C8230022354634
:104F00009B1B93FBF7F313441BB2294A02EBC1012D
:104F10004E78721E12B29A422BDB1A4629E0244BBD
:104F200003EBC101C878001B01E0013800B238B1C1
:104F30001F4B03EBC5035B6833F910309342F4DC7D
:104F40002044C0B22BE0B4F90630B4F90870012255
:104F5000D5E703F5FA731749A1FB03139B09013247
:104F600012B21746B2420FDA04EBC20189889942A5
:104F70000AD304EBC2018F68B1F9063003FB057355
:104F8000002BE6DA0023E4E77A1E04EBC2029288E3
:104F90009A4200D31A46824200D31046C0B2F0BCF7
:104FA0007047FF207047002070470020F7E700BFE0
:104FB00010270020D34D621002295ED8344B13F81D
:104FC0003130012B27D0002A59D0F0B4304B03EBFD
:104FD000C1035C68002C54D0251D54D0B4F90200E4
:104FE000844682422FDD2A4B03EBC103DB789342D8
:104FF00027D9274B03EBC1014F78013FFFB20023B4
:10500000BB4222D2591C35F8316091B28E421CD37A
:105010000133DBB2F4E71E4B03EBC103DB789342B1
:105020000DD21B4A02EBC1018A78012AACBF9B1A40
:1050300003F1FF33DBB24A6832F9130070471346BD
:10504000EFE7B4F90000F0BC70474FF47A7101FB50
:1050500002F205EBC3035968521AB3F9021001EBCF
:10506000D17302EB630393FBF1F3B4F900209A428E
:105070000BDB9C45E7DC18B2E5E7064870470648BD
:1050800070470448DFE70348DDE71046DBE700BF71
:10509000102700200080FFFF0CFEFFFF08B503482B
:1050A000FFF7F4FE012003F051FA08BD7CEC00008C
:1050B00070B582B004460D4603F04AFA08B102B05A
:1050C00070BD6946204603F0FCF900B1FEE76A684E
:1050D0000F4B9A420ED80F4D9DF800302A7893421C
:1050E000EDD0032B08D164262946204603F0D1F9E0
:1050F00038B1FEE7084DEFE7204603F00BFA06460D
:10510000F2E73146204603F0E0F90028D7D0FEE769
:10511000FFC99A3BE0120020D812002000207047FF
:1051200030B585B005460C461D4B93E8070004AB2F
:1051300003E90700284603F070FB611E042929D803
:10514000DFE801F0030C11171D00284603F080FB77
:105150000446CCB104BB204605B030BD284603F060
:105160007DFB0446F5E70021284603F07DFB04465D
:10517000EFE70221284603F077FB0446E9E72846DB
:1051800003F060FB0446E4E701A9284602F034FF7F
:105190000446DFE70124DDE7284603F04FFBDAE7AA
:1051A00034ED0000F0B589B007460E4601AC184D4D
:1051B0000FCD0FC495E8070084E8070001A9384621
:1051C00003F0B2FA044650B9063E032E1DD8DFE8BC
:1051D00006F0020D1217384603F0DAFA044614B14D
:1051E000384603F0F5FA204609B0F0BD384603F022
:1051F000D5FA0446F3E7384603F0DCFA0446EEE756
:10520000384603F0D1FA0446E9E70124E8E700BF95
:1052100040ED0000F0B589B006460F4601AC114DD7
:105220000FCD0FC495E8070084E8070001A93046B8
:1052300003F07AFA044648B90A2F03D00B2F0CD09A
:10524000012404E0304603F0BFFA044614B13046AE
:1052500003F0BEFA204609B0F0BD304603F0B0FAC4
:105260000446F3E75CED0000F0B587B006460F4654
:105270006C463F4D0FCD0FC495E8030084E8030052
:105280006946304603F0FAFA044680B90C3F0D2F08
:1052900068D8DFE807F00713191F252B31373D4386
:1052A000494F555B3349304603F0EEFA0446002C73
:1052B00052D0002C58D1204607B0F0BD2E493046C0
:1052C00003F0E2FA0446F2E72C49304603F0DCFA38
:1052D0000446ECE72A49304603F0D6FA0446E6E7EE
:1052E0002849304603F0D0FA0446E0E72649304624
:1052F00003F0CAFA0446DAE72449304603F0C4FA58
:105300000446D4E72249304603F0BEFA0446CEE70D
:105310002049304603F0B8FA0446C8E71E49304633
:1053200003F0B2FA0446C2E71C49304603F0ACFA77
:105330000446BCE71A49304603F0A6FA0446B6E72D
:105340001849304603F0A0FA0446B0E71649304643
:1053500003F09AFA0446AAE7FF21304603F092FAD6
:105360000446A6E70124A4E7304603F089FAA2E741
:1053700078ED0000ECED00000CEE00002CEE0000DB
:105380004CEE00008CEE00006CEE0000ACEE000075
:10539000CCEE0000ECEE00000CEF00002CEF000063
:1053A0004CEF00006CEF00008CEF000008B51929ED
:1053B0001DD8DFE801F00D10101010101313131397
:1053C0001616191919191919191919191919191953
:1053D000FFF7A4FE08BDFFF7A3FEFBE7FFF7E2FE21
:1053E000F8E7FFF717FFF5E7FFF73EFFF2E70120C9
:1053F000F0E7000000B587B0002301930393049306
:10540000059302238DF804300C4B029306228DF88D
:105410000C2001238DF80D300C218DF80E108DF825
:1054200012208DF813300D238DF8143001A94FF0A0
:10543000FF3003F037F907B05DF804FB006A18008D
:1054400008B56FF007014FF0FF3003F02EF908BDEB
:1054500010B584B0054B6C460FCB84E80F00204696
:10546000FFF736F9002004B010BD00BF90ED00003A
:1054700010B582B000240094ADF8044002238DF8EA
:1054800005306846FEF762FF204602B010BD0000FE
:1054900030B587B001AC144D0FCD0FC42B682380FD
:1054A000124B5B6813F4002F11D1104B9B68C3F3B0
:1054B0000803B3F1FF3F14D0ADF80A300C48FBF7F6
:1054C000C7FB01A8FEF788FB002007B030BD4FF0F6
:1054D000FF33084A12884FF6FF718A42E9D013461B
:1054E000E7E74FF4AA73E7E7A0ED0000B081E00F13
:1054F00000F049020001E00F00B583B0074B1B68C4
:10550000019302A8202300F8043DFEF7A3FB6420CA
:10551000FEF72CF9002003B05DF804FBB4ED0000A9
:105520006FF0040307E003F00F010A4A0A44A021C8
:10553000117601335BB2322B09DC002BF3DB03F174
:10554000604202F56142A02182F80013F1E70020D9
:10555000704700BFFCEC00E0013840EA500040EA30
:10556000900040EA101040EA102040EA104001305C
:10557000704770B504460D461E461046FFF7ECFF17
:10558000B0F5807F38BF4FF4807043422340C2188B
:1055900003E0400043422340C218AA42F9D33360DB
:1055A000049B1A60059B186070BDB0FA80F0C0F1D2
:1055B0001E00C0B27047000070B586B0002305938E
:1055C0000493BFF34F8FBFF36F8F374A536A23F4AF
:1055D00080335362354C636823F0010363604FF0FE
:1055E0000050FFF7E2FF324A1368400000F03E002F
:1055F00040F0985040F00110A3604FF00051E1607E
:105600002061013313602B4D2B4CA5423AD003ABE4
:10561000019304AB009305AB2A1B29462046FFF7F4
:10562000A8FF0398C20800D12022049B5B1BB3FB98
:10563000F2F3012101FA03F3DBB2013BDBB2059E79
:10564000013DAD1BB5FBF2F50D44AB40DBB2A41B35
:10565000B4FBF2F401FA04F4013CE4B21C43FFF79A
:10566000A4FF13490B68400000F03E0040EA042408
:1056700044F0407444F001140C4A9360D660146105
:1056800001330B60BFF34F8FBFF36F8F074B0522C2
:105690005A60054A536A43F480335362BFF34F8F15
:1056A000BFF36F8F06B070BD00ED00E090ED00E03D
:1056B00030270020A813002094130020BFF34F8F41
:1056C0000549CA6802F4E062044B1343CB60BFF3A0
:1056D0004F8F00BFFDE700BF00ED00E00400FA05BA
:1056E00008B5FFF7EBFF08BD0120012805D8431ED0
:1056F000034AD35C0BB90130F7E7C0B2704700BF73
:105700005C270020F8B506460F46032903D8DFE8DA
:1057100001F00A040608002506E0042504E010252F
:1057200002E0402500E00125032E05D8DFE806F061
:1057300002070A0D45F002050B4B1C6809E045F015
:105740000805F9E745F02005F6E745F08005F3E7A1
:10575000246844B163681A682A42F9D05B68394604
:1057600030469847F4E7F8BD58270020044B1B78D3
:1057700020B9FF221344024A137070470122F9E74F
:105780005C27002038B5FEF789FA0446154B1B78D4
:1057900033B1154B1B788BB9002000F043FA98B950
:1057A000104B1B78B3B1114B01221A70104B1A78B1
:1057B000104B1A702046FEF775FA38BD00F031FA2A
:1057C000094B00221A70E7E7064B00221A7000F01E
:1057D0002BFAE5E7064D01212878FFF793FF012317
:1057E0002B70E3E75627002054270020572700207E
:1057F0004C2700204D27002010B584B0F0B1831E47
:10580000012B1ED803A9002000F0F8FBC8B9184BE3
:105810001B68039A9A421DD9164B1C6800F050FA77
:105820002044039988421CD2022301930023009351
:10583000114A091A114800F083FB02E0104B1B7853
:105840000BB904B010BD0020FFF790FF0C4B0022F5
:105850001A70F6E70120FFF789FF094B01221A7041
:10586000EFE70120FFF782FF054B01221A70E8E7FE
:10587000502700206427002085570000342700208F
:105880005F27002038B5FEF709FA0546114B1B7853
:105890006BB900F0E9FA0446C0B900F0F1FB0E4B19
:1058A00018600E48FBF700FA0D4B00221A6000F05A
:1058B00009F900F0FFF90B4B1860064B01221A7032
:1058C0002846FEF7EFF90024204638BD2846FEF7AB
:1058D000E9F9F9E755270020602700205827002024
:1058E000642700205027002070B504460D46FEF7BF
:1058F000D5F90646601E194B1B5CE5B10122134425
:10590000164A1354164B1C78012C10D9FFF7ECFEE5
:10591000054684420BD9134B1B7873B9124B1B7885
:105920008BB90F4C29462078FFF7ECFE25703046E6
:10593000FEF7B8F970BDFF22E1E700F072F9094BFC
:1059400000221A70EAE70023074A1370074A13700F
:10595000012000F067F900F067F9E2E75C2700201A
:105960004C270020542700205627002057270020CE
:10597000064B1B6803FB00F000F5742000F23F208B
:10598000034BA3FB0030800C704700BF6027002052
:1059900083DE1B4338B5FEF781F9054602F042FA73
:1059A00038BB2846FEF77EF97CE00020FFF7DEFEDC
:1059B0003D4B00221A7020E000F00CF92AE021464D
:1059C000FFF7A0FE2EE0394B01221A70384B1878F1
:1059D00000F056F9AFF300802846FEF763F9FEF7B2
:1059E0005DF90546334800F07BFA02F029FA0028F9
:1059F0002AD02D4B1B78002BD7D1FFF775FEFFF770
:105A0000FBFEFFF771FE0446012803D9274B1B78E4
:105A1000002BD1D0264B1878A04205D0264B1B78FE
:105A2000002BCCD0224B1C70012CCFD91F4B1B78E4
:105A3000002BCBD1214B1B78002BC4D100F0F0F808
:105A40001F4B01221A70BEE7184B1B78EBB10023E5
:105A5000164A1370184A1370194B1B7873B100F073
:105A6000E0F8174B00221A7008E0012000F008F956
:105A70002846FEF717F9FEF711F90546002000F059
:105A8000D1F80028F1D000F0CFF80020FFF7B4FEE5
:105A9000074C00212078FFF735FE002323702846AD
:105AA000FEF700F938BD00BF5F2700205627002011
:105AB0004C27002034270020572700205E27002095
:105AC000542700202DE9F04B82B000248DF80440CB
:105AD0008DF8054002A800F8084DFEF717FC8DF878
