:100000000010002065070000610700006107000084
:10001000C94E000061070000610700006107000091
:1000200061070000610700006107000031700000F7
:100030006107000061070000A17000000571000069
:100040006107000019AA00006107000061070000B5
:1000500069A1000085AA000025AA00003DAA0000B1
:100060001DAA0000410C0000190D000061070000EE
:1000700061070000610700006107000061070000E0
:100080006107000061070000410D000061070000EA
:1000900061070000610700006107000061070000C0
:1000A00061070000610700006107000061070000B0
:1000B00089AA000021AA0000BD5A0000C9AA0000B8
:1000C00061070000659400006107000061070000FF
:1000D0006107000061070000610700006107000080
:1000E0006107000061070000610700006107000070
:1000F0006107000061070000610700006107000060
:1001000061070000610700006107000010B5054CA1
:10011000237833B9044B13B10448AFF300800123B3
:10012000237010BD9C13002000000000B0EC000004
:1001300008B5034B1BB103490348AFF3008008BD6A
:1001400000000000A0130020B0EC0000154B002BB5
:1001500008BF134B9D46A3F5803A00218B460F46FE
:100160001348144A121A0CF010FA0F4B002B00D04F
:1001700098470E4B002B00D0984700200021040028
:100180000D000D48002802D00C48AFF300800CF0A1
:10019000CDF92000290000F0D7F80CF0B3F900BF2A
:1001A0000000080000100020000000000000000017
:1001B0009C130020B0280020000000000000000078
:1001C00008B504F001FD08BD00230B707047000066
:1001D00000B585B004E0134B1B78002BFBD100BFAA
:1001E0004FF0FF31002006F07DFC0F4C21460F48F8
:1001F00005F070FA2378002BF1D10A4B01221A7016
:1002000003A94FF47A7005F0F1FA0028E3D1002336
:1002100001930093034B064A0399044805F07AFAC8
:10022000D9E700BFF820002054160020B8130020A2
:10023000C901000000B585B02EE003A94FF47A7023
:1002400005F0D4FA00283ED1002301930093274BF8
:10025000274A0399274805F023FA34E0264B19680A
:10026000264B186807F02DFC254A93881188528880
:1002700001920091234A642123480CF08FF9234B0B
:100280001D68214C20460CF0BDF902462146284647
:1002900002F076FC0028F2D14FF0FF31002006F08A
:1002A00021FC1B4A0221154B186807F004FC124B75
:1002B00018600028F0D0174C21460E4805F00AFAC5
:1002C0002378002BB9D1124CA288A1680C480CF0FD
:1002D00051F9E1680029C1D06288A388D21A92B28C
:1002E000074818440CF046F9B8E700BFF820002092
:1002F000C9010000B8130020581600206C17002018
:10030000241C0020B4CE0000341C00203810002033
:100310005C1600205416002008B500221146074B39
:10032000186807F0A1F800B108BD054900230B606B
:10033000044B186806F012FCF6E700BF6C170020AB
:10034000FC200020D013002000B585B005F0DCFBB8
:10035000FFF736FF144B1860144B0293144B0193B4
:100360000423009300234FF48C721249124806F0C4
:100370005DF8124B186098B1114B0293114B019329
:100380000123009300238C220F49104806F04EF8F9
:100390000F4B186020B10F4B20221A6005F0C0FBF4
:1003A000002005B05DF804FB6C170020D41B002072
:1003B0007417002098CE000035020000701700204E
:1003C00004160020D4130020A8CE0000D1010000A4
:1003D000D01300200CA00046034B0360034B0B60BE
:1003E0008C231360704700BF00210020981C002060
:1003F000034B0360034B0B608C231360704700BFFB
:1004000050210020C81E002010B5064C01220021FA
:10041000206807F01FF8044B32222221206807F0E1
:100420001DF810BD6C170020190300002DE9F041E4
:1004300006461746002203F48073134307D107F0E2
:100440000804002554EA050306D1BDE8F081002226
:10045000114607F0F1FAF2E7304607F030FB0349A6
:10046000034B186806F07AFBEFE700BFFC20002082
:100470007017002010B5074C2246074907F017FBFC
:100480002388B3F5807F01D0012010BD0228FCD164
:100490000020FAE7001000206C16002000207047B2
:1004A000704708B500F0B4F808BD000008B5042195
:1004B000112002F0F7FF0121084802F019FC022187
:1004C000074802F0EFFF0221064802F0EBFF02218D
:1004D000054802F0E7FF002008BD00BF30253E00C0
:1004E00002001E00030020000500240008B51F4B79
:1004F00001225A641E4BDB6C1B0E0AD11D494AF6C1
:10050000E8520A601C48026842F0040202600022BD
:100510000A60012B24D9194A136A23F4441343F4C3
:1005200088131362A2F58042136843F4807313604A
:1005300002F546522432136843F4F843136000F086
:100540007DF804F095FB04F0B3FB04F0E5FBFFF746
:10055000ADFF04F09DFB00F065F804F01BFD08BD45
:10056000074A136843F400531360D4E700000E40B9
:10057000B081E00F90310E4098310E4000400E40A7
:1005800064310E4008B505F06DFF08BD08B500F0F8
:1005900031F808BD08B505F01BF804F001FC08BDF2
:1005A00008B504F0D3FA04F015FB08BD7047704796
:1005B00008B5FFF7FCFF08BD704708B5FFF7FCFF63
:1005C00008BD704738B504460D4604F0C7FA294601
:1005D0002046FFF7F6FF38BD08B5FFF727FF08BD37
:1005E00018B1034A1060002070472520704700BFF3
:1005F000A021002010B5044C0449206802F0BEF987
:100600002068FFF7EDFF10BD381000201410002007
:1006100008B5002304220521184603F07BFE0020C4
:1006200008BD000008B50121034802F061FBFFF797
:1006300038FF00F017F808BD00350A0008B50121A1
:10064000014802F055FB08BD00350A00014B10229D
:100650001A6070470CA00044014B10221A607047CA
:100660000CA0004670B586B06C46374D0FCD0FC458
:1006700095E8030084E803000121344802F038FBC8
:10068000334E0121304602F033FB01258DF80E5028
:10069000304B0293304C6946204604F0FAF82B4662
:1006A00004220621022003F035FE00232A460721FA
:1006B000022003F02FFE2B4604220821022003F023
:1006C00029FE2B4604221146002003F023FE234B73
:1006D000A3670B2363674FF4487005F025FAFFF713
:1006E000B5FF142005F020FAFFF7B6FF232005F030
:1006F0001BFAFFF7ABFFB921204604F00DF9FFF715
:10070000ABFF00231A460621022003F003FE00235C
:100710001A460721022003F0FDFD2B460022082186
:10072000022003F0F7FD2B4600220421104603F0BF
:10073000F1FD204604F03EF80021A16761673046D4
:1007400002F0D6FA06B070BD9CD2000000350A0057
:100750000052040000127A00000401400B0B000B51
:10076000FEE7000010B500F06FF8074B074C194684
:10077000074A04E010680860043304310432A342DD
:10078000F8D3FFF7E3FC00BF001000209C1300200B
:10079000B8EC00000048704700F04902114BD3F854
:1007A000943003F00703023B032B0DD8DFE803F07E
:1007B000050F02080C4B18680BE00C4B186808E09A
:1007C0000B4B1868400804E0094B186801E04FF42F
:1007D0000040044BD3F80031C3F304230133B0FBD2
:1007E000F3F0704700400E404811002040110020F7
:1007F0004411002008B5FFF7D1FF054BD3F80831AD
:10080000C3F308230133B0FBF3F0024B186008BDBB
:1008100000400E403C110020014B1868704700BF9B
:100820004011002008B5064B1860064BD3F89430F1
:1008300003F00703022B00D008BDFFF7DBFFFBE747
:100840004011002000400E40044B054A9A60D3F846
:10085000882042F47002C3F88820704700ED00E061
:10086000000000004FF4004070474FF47A7070476A
:10087000014B1868704700BF481100200023036037
:1008800070470000064B1B681844064A904203D884
:10089000034A1060184670474FF0FF33FAE700BF75
:1008A0004C11002000000420F0B585B00E4614461F
:1008B0009DF83410654A1278002A00F0B980054688
:1008C000072C00F2B8800A9A002A00F0B6800B9A32
:1008D000002A00F0B4800E9AB2F5006F00F3B180E8
:1008E000012852D05A4A02EB0412127B002A00F06F
:1008F000AA800022019202920392564F07EB4417FE
:10090000002E47D1DFF84CE14FEA441C00204EF89E
:100910000C007860B860F860B87840F01000B870EB
:10092000F87840F03000F87019B9C1B241F0030115
:10093000F97000930E9B013B46486101421830F864
:1009400001C063F30E1C20F801C00A9B93600B9B4F
:100950005360D3789DF83C1061F38303D370012D6D
:1009600035D0109B002B59D02046394922018B18D5
:10097000109C8C50119A5A6000249C605D733A461A
:10098000694603F057FD204653E00C9A002AA9D18E
:1009900031484EE0DFF8BCE04FEA441C0EEB0C029D
:1009A00000204EF80C0050609060D060907840F0CD
:1009B00010009070D07840F00300D0700029B8D1BA
:1009C0000EEB4412C1B241F03001D170B1E7944650
:1009D000127B42F003028CF80C20DCF80C2004217E
:1009E00061F39F02CCF80C200CF1100E9CE80F0074
:1009F0008EE80F00DCF81C206FF0030161F39F020A
:100A0000CCF81C200C9BCCF81430012EA9D10B9AE9
:100A1000CCF818200C9ACCF80420A2E7002DA3D122
:100A20000C4B03EB44139A786FF304129A709BE714
:100A30000A4805B0F0BD0848FBE70748F9E7064853
:100A4000F7E70548F5E70648F3E700BF2423002051
:100A5000A421002024220020018000F0028000F068
:100A6000078000F0124B1B78F3B1F8B110B50446C3
:100A700002F079FE0023072B12DC0E4A02EB031270
:100A8000127B0AB10133F6E723600A4A1B01D11831
:100A900001240C730024D45002F069FE204602E0C9
:100AA00002F065FE044810BD0448704704487047D2
:100AB00024230020A4210020048000F0028000F004
:100AC000018000F000B583B0144B1B680193002334
:100AD0008DF8043002F047FE114B1B7833B9104BF0
:100AE00001221A7002F043FE002309E002F03FFEEB
:100AF0000C480FE00C4A02EB031200211173013382
:100B0000072BF7DD04238DF807300DEB030003F00E
:100B100067FC002003B05DF804FB00BFB4D2000006
:100B200024230020038000F0A421002010B588B009
:100B30000E9C07940D9C06949DF8304005940B9CE8
:100B400004949DF828400394002402940193009299
:100B50000B46024621462046FFF7A6FE08B010BD10
:100B600008B50A4B1B785BB107280BD8084B03EB81
:100B700000131B7B43B1002103F028FC002000E0A0
:100B8000044808BD0448FCE70448FAE72423002091
:100B9000A4210020028000F0018000F0078000F016
:100BA00008B50A4B1B785BB107280BD8084B03EB41
:100BB00000131B7B43B1012103F008FC002000E07F
:100BC000044808BD0448FCE70448FAE72423002051
:100BD000A4210020028000F0018000F0078000F0D6
:100BE000114B1B78BBB1072817D8C1B10F4B03EBD2
:100BF00000131B7BABB11F2807D80D4B1A6AC0B27C
:100C0000012303FA00F0024202D10020087070476D
:100C10000B70002070470748704707487047064828
:100C200070470648704700BF24230020A4210020FD
:100C300000200E40028000F0018000F0078000F0EC
:100C4000F8B5194B1F6EDB6E1F4002D4012600243D
:100C500002E0FEE701347600072C24D83E42F9D0AA
:100C6000114B9E662301114AD358002BF2D002EBA0
:100C70000415A9680131A9606A682046984780F088
:100C80000103DBB26A7B012AE4D1002BE2D0084BDE
:100C900003EB4413197B6FF3410119731A7F6FF350
:100CA00041021A77D6E7F8BD00200E40A4210020AB
:100CB0002422002010B504467CB194FAA4F0B0FAC6
:100CC00080F0C2B20123934024EA0304034B53F89B
:100CD0002230002BF0D09847EEE710BD28230020EB
:100CE000054B4FF48022C3F880211A604FF48062D4
:100CF000C3F880211A60704700E100E038B504466F
:100D00000D4602F030FD034B43F8245002F02FFD56
:100D100038BD00BF2823002008B5084BD3F82804AD
:100D2000D3F81C24104020F42A5020F02A0040045C
:100D3000400CC3F82404FFF7BDFF08BD00A000402D
:100D400008B5084BD3F82804D3F81C24104020F42D
:100D5000AA4020F055000004000CC3F82404FFF75B
:100D6000A9FF08BD00A000400023436370470000B6
:100D70000023032B07D8054A52F82320517F8142D4
:100D800002D00133F5E700221046704768230020A7
:100D900090F83130022B01D000207047427E437F13
:100DA00002EB42021101044A0A4403EBC2039B0016
:100DB0001868C0B2704700BF1CA0104290F83230D3
:100DC00063B903680422DA6003681A6912F0020F3B
:100DD000FAD05A6F42F002025A677047012B00D0D6
:100DE000704703685A6C12F0020FFAD104225A605D
:100DF00003689A6812F0020FFAD05A6D42F00202AC
:100E00005A65EDE790F8323013B1012B09D07047E5
:100E10000268536F23F00203536703680822DA6005
:100E2000704703685A6C12F0020FFAD15A6D22F023
:100E300002025A65036808225A60E8E740B149B1E6
:100E400052B1B2F5006F01D80020704703487047D7
:100E5000034870470148704700487047037000F02E
:100E6000027000F00368D84A93420DD0D74A9342EB
:100E700000F0A982D64A934200F01185D54A9342E8
:100E800000F07A87D44870470B7A002B5ED0012B94
:100E900000F0C180022B00F0C080032B00F0BF8067
:100EA000042B00F0BE80052B00F0BD80062B00F067
:100EB000BC80072B00F0BB80082B00F0BA80092B08
:100EC00000F0B9800A2B00F0B8800B2B00F0B7803F
:100ED0000C2B00F0B6800D2B00F0B5800E2B00F02F
:100EE000B4800F2B00F0B380102B00F0B280112BD8
:100EF00000F0B180122B00F0B080132B00F0AF8017
:100F0000142B00F0AE80152B00F0AD80162B00F0F6
:100F1000AC80172B00F0AB80182B00F0AA80192BA7
:100F200000F0A9801A2B00F0A8801B2B00F0A780EE
:100F30001C2B00F0A6801D2B00F0A5801E2B00F0BE
:100F4000A4801F2B40F0A380052300E00023C3757D
:100F50004B7A002B00F09D80012B00F0FF80022BCC
:100F600000F0FE80032B00F0FD80042B00F0FC80DD
:100F7000052B00F0FB80062B00F0FA80072B00F019
:100F8000F980082B00F0F880092B00F0F7800A2B7D
:100F900000F0F6800B2B00F0F5800C2B00F0F480B5
:100FA0000D2B00F0F3800E2B00F0F2800F2B00F0E1
:100FB000F180102B00F0F080112B00F0EF80122B4D
:100FC00000F0EE80132B00F0ED80142B00F0EC808D
:100FD000152B00F0EB80162B00F0EA80172B00F0A9
:100FE000E980182B00F0E880192B00F0E7801A2B1D
:100FF00000F0E6801B2B00F0E5801C2B00F0EE805B
:101000001D2B00F0ED801E2B00F0EC801F2B40F01C
:10101000EB8000233EE0002399E7002397E70023BD
:1010200095E7002393E7002391E701238FE701234E
:101030008DE701238BE7012389E7012387E702235B
:1010400085E7022383E7022381E702237FE7022368
:101050007DE702237BE7032379E7032377E7032375
:1010600075E7032373E7032371E703236FE7032384
:101070006DE705236BE7052369E7052367E705238C
:1010800065E7052363E7052361E705235FE7FF23A2
:101090005DE7002303760B7A002B00F0A780012B7D
:1010A00000F00981022B00F00881032B00F007817A
:1010B000042B00F00681052B00F00581062B00F0C3
:1010C0000481072B00F00381082B00F00281092B1B
:1010D00000F001810A2B00F000810B2B00F0FF8053
:1010E0000C2B00F0FE800D2B00F0FD800E2B00F08D
:1010F000FC800F2B00F0FB80102B00F0FA80112BEE
:1011000000F0F980122B00F0F880132B00F0F7802C
:10111000142B00F0F680152B00F0F580162B00F054
:10112000F480172B00F0F380182B00F0F280192BBD
:1011300000F0F1801A2B00F0F0801B2B00F0EF8004
:101140001C2B00F0EE801D2B00F0ED801E2B00F01C
:10115000EC801F2B40F0EB80072348E0002399E749
:10116000002397E7002395E7002393E7012391E706
:1011700001238FE701238DE701238BE7012389E713
:10118000022387E7022385E7022383E7022381E71F
:1011900002237FE702237DE703237BE7032379E72D
:1011A000032377E7032375E7032373E7032371E73B
:1011B00003236FE705236DE705236BE7052369E745
:1011C000052367E7052365E70000014000040140AF
:1011D00000080140000C0140037000F0052359E7AE
:1011E000052357E7052355E7FF2353E70023C3767D
:1011F0004B7A002B00F09D80012B00F0A680022B83
:1012000000F0A580032B00F0A480042B00F0A38045
:10121000052B00F0A280062B00F0A180072B00F028
:10122000A080082B00F09F80092B00F09E800A2BE5
:1012300000F09D800B2B00F09C800C2B00F09B801D
:101240000D2B00F09A800E2B00F099800F2B00F0F0
:101250009880102B00F09780112B00F09680122BB5
:1012600000F09580132B00F09480142B00F09380F5
:10127000152B00F09280162B00F09180172B00F0B8
:101280009080182B00F08F80192B00F08E801A2B85
:1012900000F08D801B2B00F08C801C2B00F08B80CD
:1012A0001D2B00F08A801E2B00F089801F2B40F040
:1012B000888000233EE0012399E7022397E7032378
:1012C00095E7042393E7052391E70B238FE70C238E
:1012D0008DE70D238BE70E2389E70F2387E706238E
:1012E00085E7072383E7082381E709237FE70A23AC
:1012F0007DE70B237BE7092379E70A2377E70B23B5
:1013000075E70C2373E70D2371E70E236FE70F23B7
:101310006DE700236BE7012369E7022367E70323F7
:1013200065E7042363E7052361E706235FE7FF23FF
:101330005DE7012303774B7C43768B7C4377CB7C43
:1013400083760B7D8377002070470223F2E7032327
:10135000F0E70423EEE70523ECE70B23EAE70C2391
:10136000E8E70D23E6E70E23E4E70F23E2E7062391
:10137000E0E70723DEE70823DCE70923DAE70A23AF
:10138000D8E70B23D6E70923D4E70A23D2E70B23B8
:10139000D0E70C23CEE70D23CCE70E23CAE70F23BB
:1013A000C8E70023C6E70123C4E70223C2E70323FB
:1013B000C0E70423BEE70523BCE70623BAE70723FB
:1013C000B8E7FF23B6E70B7A002B5ED0012B00F0C5
:1013D000C180022B00F0C080032B00F0BF80042BE3
:1013E00000F0BE80052B00F0BD80062B00F0BC8015
:1013F000072B00F0BB80082B00F0BA80092B00F00F
:10140000B9800A2B00F0B8800B2B00F0B7800C2BB2
:1014100000F0B6800D2B00F0B5800E2B00F0B480EC
:101420000F2B00F0B380102B00F0B280112B00F0D6
:10143000B180122B00F0B080132B00F0AF80142B82
:1014400000F0AE80152B00F0AD80162B00F0AC80C4
:10145000172B00F0AB80182B00F0AA80192B00F09E
:10146000A9801A2B00F0A8801B2B00F0A7801C2B52
:1014700000F0A6801D2B00F0A5801E2B00F0A4809C
:101480001F2B40F0A380052300E00023C3754B7A97
:10149000002B00F09D80012B00F0FF80022B00F05C
:1014A000FE80032B00F0FD80042B00F0FC80052B58
:1014B00000F0FB80062B00F0FA80072B00F0F9808B
:1014C000082B00F0F880092B00F0F7800A2B00F0C1
:1014D000F6800B2B00F0F5800C2B00F0F4800D2B28
:1014E00000F0F3800E2B00F0F2800F2B00F0F18063
:1014F000102B00F0F080112B00F0EF80122B00F089
:10150000EE80132B00F0ED80142B00F0EC80152BF7
:1015100000F0EB80162B00F0EA80172B00F0E9803A
:10152000182B00F0E880192B00F0E7801A2B00F050
:10153000E6801B2B00F0E5801C2B00F0E4801D2BC7
:1015400000F0E3801E2B00F0E2801F2B40F0E180D2
:1015500000233EE0002399E7002397E7002395E767
:10156000002393E7002391E701238FE701238DE711
:1015700001238BE7012389E7012387E7022385E71E
:10158000022383E7022381E702237FE702237DE72B
:1015900002237BE7032379E7032377E7032375E738
:1015A000032373E7032371E703236FE703236DE747
:1015B00005236BE7052369E7052367E7052365E74F
:1015C000052363E7052361E705235FE7FF235DE765
:1015D000002303760B7A002B00F09D80012B00F096
:1015E000DF80022B00F0DE80032B00F0DD80042B77
:1015F00000F0DC80052B00F0DB80062B00F0DA80A9
:10160000072B00F0D980082B00F0D880092B00F0C0
:10161000D7800A2B00F0D6800B2B00F0D5800C2B46
:1016200000F0D4800D2B00F0D3800E2B00F0D28080
:101630000F2B00F0D180102B00F0D080112B00F088
:10164000CF80122B00F0CE80132B00F0CD80142B16
:1016500000F0CC80152B00F0CB80162B00F0CA8058
:10166000172B00F0C980182B00F0C880192B00F050
:10167000C7801A2B00F0C6801B2B00F0C5801C2BE6
:1016800000F0C4801D2B00F0C3801E2B00F0C28030
:101690001F2B40F0C18007233EE0002399E7002381
:1016A00097E7002395E7002393E7012391E70123C0
:1016B0008FE701238DE701238BE7012389E70223CD
:1016C00087E7022385E7022383E7022381E70223DA
:1016D0007FE702237DE703237BE7032379E70323E7
:1016E00077E7032375E7032373E7032371E70323F6
:1016F0006FE705236DE705236BE7052369E70523FE
:1017000067E7052365E7052363E7052361E705230D
:101710005FE7FF235DE70023C3764B7A002B7DD084
:10172000012B7ED0022B7ED0032B7ED0042B7ED0CB
:10173000052B7ED0062B7ED0072B7ED0082B7ED0AB
:10174000092B7ED00A2B7ED00B2B7ED00C2B7ED08B
:101750000D2B7ED00E2B7ED00F2B7ED0102B7ED06B
:10176000112B7ED0122B7ED0132B7ED0142B7ED04B
:10177000152B7ED0162B7ED0172B7ED0182B7ED02B
:10178000192B7ED01A2B7ED01B2B7ED01C2B7ED00B
:101790001D2B7ED01E2B7ED01F2B7ED100233EE042
:1017A0000123B9E70223B7E70323B5E70423B3E72F
:1017B0000523B1E70B23AFE70C23ADE70D23ABE720
:1017C0000E23A9E70F23A7E70623A5E70723A3E72F
:1017D0000823A1E709239FE70A239DE70B239BE743
:1017E000092399E70A2397E70B2395E70C2393E74F
:1017F0000D2391E70E238FE70F238DE700238BE75F
:10180000012389E7022387E7032385E7042383E78E
:10181000052381E706237FE7FF237DE70123037785
:1018200089E50223FBE70323F9E70423F7E7052310
:10183000F5E70B23F3E70C23F1E70D23EFE70E2386
:10184000EDE70F23EBE70623E9E70723E7E70823A4
:10185000E5E70923E3E70A23E1E70B23DFE70923B1
:10186000DDE70A23DBE70B23D9E70C23D7E70D23BA
:10187000D5E70E23D3E70F23D1E70023CFE70123DA
:10188000CDE70223CBE70323C9E70423C7E70523FA
:10189000C5E70623C3E70723C1E7FF23BFE70B7AAA
:1018A000002B5ED0012B00F0C180022B00F0C08025
:1018B000032B00F0BF80042B00F0BE80052B00F04E
:1018C000BD80062B00F0BC80072B00F0BB80082BEE
:1018D00000F0BA80092B00F0B9800A2B00F0B88024
:1018E0000B2B00F0B7800C2B00F0B6800D2B00F016
:1018F000B5800E2B00F0B4800F2B00F0B380102BBE
:1019000000F0B280112B00F0B180122B00F0B080FB
:10191000132B00F0AF80142B00F0AE80152B00F0DD
:10192000AD80162B00F0AC80172B00F0AB80182B8D
:1019300000F0AA80192B00F0A9801A2B00F0A880D3
:101940001B2B00F0A7801C2B00F0A6801D2B00F0A5
:10195000A5801E2B00F0A4801F2B40F0A3800A233B
:1019600000E00023C3754B7A002B00F09D80012B13
:1019700000F0FF80022B00F0FE80032B00F0FD80C2
:10198000042B00F0FC80052B00F0FB80062B00F000
:10199000FA80072B00F0F980082B00F0F880092B63
:1019A00000F0F7800A2B00F0F6800B2B00F0F5809A
:1019B0000C2B00F0F4800D2B00F0F3800E2B00F0C8
:1019C000F2800F2B00F0F180102B00F0F080112B33
:1019D00000F0EF80122B00F0EE80132B00F0ED8072
:1019E000142B00F0EC80152B00F0EB80162B00F090
:1019F000EA80172B00F0E980182B00F0E880192B03
:101A000000F0E7801A2B00F0E6801B2B00F0E58049
:101A10001C2B00F0E4801D2B00F0E3801E2B00F057
:101A2000E2801F2B40F0E18000233EE0002399E795
:101A3000002397E7002395E7002393E7082391E726
:101A400008238FE708238DE708238BE7012389E725
:101A5000012387E7012385E7012383E7012381E74A
:101A600005237FE705237DE705237BE7052379E74A
:101A7000052377E7052375E7052373E7052371E75A
:101A800005236FE705236DE705236BE7052369E76A
:101A9000052367E7052365E7052363E70A2361E775
:101AA0000A235FE7FF235DE7002303760B7A002B11
:101AB00000F09D80012B00F0DF80022B00F0DE8023
:101AC000032B00F0DD80042B00F0DC80052B00F000
:101AD000DB80062B00F0DA80072B00F0D980082B82
:101AE00000F0D880092B00F0D7800A2B00F0D680B8
:101AF0000B2B00F0D5800C2B00F0D4800D2B00F0C8
:101B0000D3800E2B00F0D2800F2B00F0D180102B51
:101B100000F0D080112B00F0CF80122B00F0CE808F
:101B2000132B00F0CD80142B00F0CC80152B00F08F
:101B3000CB80162B00F0CA80172B00F0C980182B21
:101B400000F0C880192B00F0C7801A2B00F0C68067
:101B50001B2B00F0C5801C2B00F0C4801D2B00F057
:101B6000C3801E2B00F0C2801F2B40F0C1800223D7
:101B70003EE0002399E7002397E7002395E7082339
:101B800093E7082391E708238FE708238DE70123D4
:101B90008BE7012389E7012387E7012385E70123F9
:101BA00083E7052381E705237FE705237DE70523F9
:101BB0007BE7052379E7052377E7052375E7052309
:101BC00073E7052371E705236FE705236DE7052319
:101BD0006BE7052369E7052367E7052365E70A2324
:101BE00063E70A2361E70A235FE7FF235DE7052335
:101BF000C3764B7A002B7DD0012B7FD0022B7FD078
:101C0000032B7FD0042B7FD0052B7FD0062B7FD0DA
:101C1000072B7FD0082B7FD0092B7FD00A2B7FD0BA
:101C20000B2B7FD00C2B7FD00D2B7FD00E2B7FD09A
:101C30000F2B7FD0102B7FD0112B7FD0122B7FD07A
:101C4000132B7FD0142B7FD0152B7FD0162B7FD05A
:101C5000172B7FD0182B7FD0192B7FD01A2B7FD03A
:101C60001B2B7FD01C2B7FD01D2B7FD01E2B7FD01A
:101C70001F2B7FD105233EE00623B9E70723B7E7F3
:101C80000823B5E70923B3E70023B1E70123AFE752
:101C90000223ADE70323ABE70623A9E70723A7E762
:101CA0000823A5E70923A3E70A23A1E700239FE769
:101CB00001239DE703239BE7042399E7052397E787
:101CC000062395E7072393E7082391E709238FE786
:101CD0000A238DE70B238BE70C2389E70D2387E786
:101CE0000E2385E70F2383E7002381E701237FE7A6
:101CF000FF237DE706230377FFF71DBB0723FAE7E2
:101D00000823F8E70923F6E70023F4E70123F2E7C5
:101D10000223F0E70323EEE70623ECE70723EAE7D5
:101D20000823E8E70923E6E70A23E4E70023E2E7DC
:101D30000123E0E70323DEE70423DCE70523DAE7FA
:101D40000623D8E70723D6E70823D4E70923D2E7F9
:101D50000A23D0E70B23CEE70C23CCE70D23CAE7F9
:101D60000E23C8E70F23C6E70023C4E70123C2E719
:101D70000223C0E7FF23BEE70B7A002B5ED0012BC6
:101D800000F0C180022B00F0C080032B00F0BF8068
:101D9000042B00F0BE80052B00F0BD80062B00F068
:101DA000BC80072B00F0BB80082B00F0BA80092B09
:101DB00000F0B9800A2B00F0B8800B2B00F0B78040
:101DC0000C2B00F0B6800D2B00F0B5800E2B00F030
:101DD000B4800F2B00F0B380102B00F0B280112BD9
:101DE00000F0B180122B00F0B080132B00F0AF8018
:101DF000142B00F0AE80152B00F0AD80162B00F0F8
:101E0000AC80172B00F0AB80182B00F0AA80192BA8
:101E100000F0A9801A2B00F0A8801B2B00F0A780EF
:101E20001C2B00F0A6801D2B00F0A5801E2B00F0BF
:101E3000A4801F2B40F0A3800A2300E00323C37576
:101E40004B7A002B00F09D80012B00F0FF80022BCD
:101E500000F0FE80032B00F0FD80042B00F0FC80DE
:101E6000052B00F0FB80062B00F0FA80072B00F01A
:101E7000F980082B00F0F880092B00F0F7800A2B7E
:101E800000F0F6800B2B00F0F5800C2B00F0F480B6
:101E90000D2B00F0F3800E2B00F0F2800F2B00F0E2
:101EA000F180102B00F0F080112B00F0EF80122B4E
:101EB00000F0EE80132B00F0ED80142B00F0EC808E
:101EC000152B00F0EB80162B00F0EA80172B00F0AA
:101ED000E980182B00F0E880192B00F0E7801A2B1E
:101EE00000F0E6801B2B00F0E5801C2B00F0E48066
:101EF0001D2B00F0E3801E2B00F0E2801F2B40F032
:101F0000E18003233EE0032399E7032397E70323BC
:101F100095E7032393E7032391E703238FE7032345
:101F20008DE708238BE7082389E7012387E701234F
:101F300085E7012383E7012381E701237FE701236D
:101F40007DE709237BE7092379E7022377E702236B
:101F500075E7022373E7022371E702236FE7022389
:101F60006DE705236BE7052369E7052367E705238D
:101F700065E7052363E70A2361E70A235FE7FF2399
:101F80005DE7032303760B7A002B00F09D80012B85
:101F900000F0DF80022B00F0DE80032B00F0DD80FC
:101FA000042B00F0DC80052B00F0DB80062B00F01A
:101FB000DA80072B00F0D980082B00F0D880092B9D
:101FC00000F0D7800A2B00F0D6800B2B00F0D580D4
:101FD0000C2B00F0D4800D2B00F0D3800E2B00F0E2
:101FE000D2800F2B00F0D180102B00F0D080112B6D
:101FF00000F0CF80122B00F0CE80132B00F0CD80AC
:10200000142B00F0CC80152B00F0CB80162B00F0A9
:10201000CA80172B00F0C980182B00F0C880192B3C
:1020200000F0C7801A2B00F0C6801B2B00F0C58083
:102030001C2B00F0C4801D2B00F0C3801E2B00F071
:10204000C2801F2B40F0C18002233EE0032399E7AA
:10205000032397E7032395E7032393E7032391E7FC
:1020600003238FE708238DE708238BE7012389E704
:10207000012387E7012385E7012383E7012381E724
:1020800001237FE709237DE709237BE7022379E723
:10209000022377E7022375E7022373E7022371E740
:1020A00002236FE705236DE705236BE7052369E747
:1020B000052367E7052365E70A2363E70A2361E74A
:1020C0000A235FE7FF235DE70823C3764B7A002BE3
:1020D0007DD0012B7FD0022B7FD0032B7FD0042B10
:1020E0007FD0052B7FD0062B7FD0072B7FD0082BEE
:1020F0007FD0092B7FD00A2B7FD00B2B7FD00C2BCE
:102100007FD00D2B7FD00E2B7FD00F2B7FD0102BAD
:102110007FD0112B7FD0122B7FD0132B7FD0142B8D
:102120007FD0152B7FD0162B7FD0172B7FD0182B6D
:102130007FD0192B7FD01A2B7FD01B2B7FD01C2B4D
:102140007FD01D2B7FD01E2B7FD01F2B7FD108234C
:102150003EE00923B9E70A23B7E70B23B5E70C23D1
:10216000B3E70D23B1E70E23AFE70F23ADE702235B
:10217000ABE70323A9E70623A7E70723A5E708237F
:10218000A3E70923A1E70A239FE70B239DE70E237B
:102190009BE70F2399E7002397E7012395E70223A5
:1021A00093E7032391E704238FE705238DE70B23B0
:1021B0008BE70C2389E70D2387E70E2385E70F23A1
:1021C00083E7002381E701237FE7FF237DE70923DE
:1021D0000377FFF7B0B80A23FAE70B23F8E70C23DD
:1021E000F6E70D23F4E70E23F2E70F23F0E70223CF
:1021F000EEE70323ECE70623EAE70723E8E70823F3
:10220000E6E70923E4E70A23E2E70B23E0E70E23EE
:10221000DEE70F23DCE70023DAE70123D8E7022318
:10222000D6E70323D4E70423D2E70523D0E70B2323
:10223000CEE70C23CCE70D23CAE70E23C8E70F2314
:10224000C6E70023C4E70123C2E70223C0E7FF2358
:10225000BEE700BF144B1B7873B10023032B11D8CA
:10226000124A52F8232082421CD00133F6E70F4A6B
:10227000002142F823100133032BF8D90A4B012225
:102280001A70EAE70023032B0AD8084A52F82320E1
:102290000AB10133F7E7054A42F8230000207047EE
:1022A00003487047002070477823002068230020EF
:1022B000027000F0416200230B80416A4B80416A4A
:1022C0008B8080F82C3082621380826A5380826A0D
:1022D000938080F82D3080F82F30704738B5044651
:1022E0000D4601F040FAA3889BB253B1638803EB1B
:1022F00083039A00083214442C6001F038FA00205D
:1023000038BD2B6001F033FA0048F9E70B7000F09C
:1023100038B504460D4601F026FAA3889BB2BBB13E
:10232000628802EB82029300083323442B606388A7
:102330005A1CE18892FBF1F301FB13239BB26380EB
:10234000A388013B9BB2A38001F011FA002038BDA5
:102350002B6001F00CFA0148F9E700BF0B7000F0A8
:1023600010B582B00446002936D001230422C17E74
:10237000C07D01F0CFFF01230222217F207E01F0EA
:10238000C9FF94F83130022B04D0032B17D0002062
:1023900002B010BD00230122617F607E01F0BAFF10
:1023A00000230422A17FA07E01F0B4FF607E617F44
:1023B0000123019300930A4601F04EFFE7E7002353
:1023C0000122617F607E01F0A5FF00230422A17F2E
:1023D000A07E01F09FFFDAE700231A46C17EC07D90
:1023E00001F098FF00231A46217F207E01F092FF22
:1023F00094F83130022B0ED0032BC8D100231A469B
:10240000617F607E01F086FF00231A46A17FA07ED7
:1024100001F080FFBBE700231A46617F607E01F078
:1024200079FF00231A46A17FA07E01F073FF607E32
:10243000617F00230193012300930A4601F00CFF02
:10244000A5E710B582B0FEF793FC20B1044690F8E2
:102450003130022B01D002B010BDFEF799FC20757F
:10246000637D022BF7D194F82E30002BF3D102A913
:1024700001F8013D6068FEF7B3FB237D13B194F8CA
:102480002F3033B1002384F82F306068FEF788FBCB
:10249000E1E70028DFD19DF80730002BDBD0606832
:1024A000FEF75EFBD7E7000010B50446FEF70AFB17
:1024B0000021201DFEF7D6FA40B9002104F10800E2
:1024C000FEF7D0FA034610B1024B00E0014B18466C
:1024D00010BD00BF0E7000F038B5044601F043F99E
:1024E0000546636B013B63631BB1284601F03FF96E
:1024F00038BD034A0021012002F07EFDF5E700BF50
:10250000E4D2000038B5044601F02DF90546636BAE
:1025100033B1636B01336363284601F028F938BD9A
:10252000024A0121084602F067FDF2E7E4D200000A
:10253000F8B504460F46164601F015F90546A3887E
:102540009BB2E288934222D2238803EB8303980054
:1025500008301422394620440AF00CF8228802EB95
:102560008202930008332344336023885A1CE18895
:1025700092FBF1F301FB13239BB22380A388013369
:102580009BB2A380284601F0F2F80020F8BD00239A
:10259000336001F0ECF80148F8E700BF0A7000F082
:1025A000F0B589B0012380F82D3090F8323033BB7C
:1025B000066834360D46044601F0D5F807460DF19D
:1025C0001F01194803F086F810B99DF81F3023BB8E
:1025D000384601F0CCF82046FFF794FF2B686A6874
:1025E000E16860680494114C039400240294019201
:1025F000012200923246FEF799FA09B0F0BD012B94
:1026000003D0002380F82D30F7E70268136843F405
:102610000053136006682836CCE7034803F010F82F
:102620002046FFF759FFD3E7142800206126000059
:1026300010B590F83230012B0CD0006802F08AF807
:10264000044603F0CDF800EBC0008300B3FBF4F0C8
:10265000013010BD006801F06DFF0446F1E7000095
:1026600070B584B0144603A9906AFFF737FE05469B
:102670002046FFF7DDFF00230193009323461D4A08
:1026800001461D4803F046F81C4B9D4220D0039B99
:1026900000221A619A6001F066F80646039AD5682E
:1026A00025B15368126800212046A84703A9A06AF3
:1026B000FFF72EFEA06A83889BB263B9002384F8DB
:1026C0002D3094F83230012B0DD0304601F04FF808
:1026D000012004B070BD03A9FFF700FE0399204656
:1026E000FFF75EFFF1E72268136823F400531360DD
:1026F000EBE700BF01270000142800200B7000F05A
:1027000010B582B00C4691F83230012B12D10B6813
:102710009B68C3F3C00393B92046FFF789FF0023EA
:10272000019300932346084A0146084802F0F2FF4D
:1027300002B010BD0B681B69C3F34013EBE72046E2
:10274000FFF7CAFEF4E700BF0127000014280020AD
:102750002DE9F04704460E461546FEF76FFB80460E
:1027600010B14046BDE8F087092001F013F8074694
:10277000A36A9B889BB23BB194F82E3023B9002FFB
:10278000F6D0FEF75DFAF3E794F8323093B9236898
:102790001B6903F00209B9F1000F02D12046FEF7D0
:1027A0000DFB012384F8303094F8323063B1012BF3
:1027B0001AD128E0012B02D04FF00009EEE7236880
:1027C0009B6803F00209E6E76F1E45B106F1010AB6
:1027D0003178206802F0ACF83D465646F4E72368AD
:1027E0001B6913F0200FFAD0B9F1000FB9D12046C0
:1027F000FEF708FBB5E706F1010A3178206801F021
:10280000ABFE3D4656466F1E002DF4D123689B68F3
:1028100013F0080FFAD0E7E7A0B110B5044690F81E
:102820002E303BB194F82E300133DBB284F82E30D9
:10283000002010BDFEF7ACFA0028F3D16068FEF767
:102840008FF9EFE700487047027000F0C8B110B58B
:10285000044690F82E30B3B190F82E30DBB2012B45
:1028600007D094F82E30013BDBB284F82E300020E4
:1028700010BDFEF78DFA0028F3D16068FEF790F9DD
:10288000EFE7024870470248F2E700BF027000F02D
:10289000057000F090F83130022B03D0012B2FD0BF
:1028A00000207047437D6BB1012B15D0037DEBB940
:1028B000837E807F03EB4303190101228240234B77
:1028C0005A50EDE7837E807F03EB43031901012219
:1028D00082401E4B5A50E3E7837E807F03EB430325
:1028E0001901012282401A4B5A50D9E7837E807F1A
:1028F00003EB4303190101228240154B5A50CFE7E5
:1029000030B583B00446037D83B102AD132305F8CF
:10291000013DFFF781FF012229462046FFF718FFFE
:102920002046FFF793FF002003B030BD02AD112316
:1029300005F8013DFFF770FF012229462046FFF709
:1029400007FF2046FFF782FFEDE700BF0CA0004421
:102950000CA0004610B504460749407FFEF7CEF9AB
:10296000FEF7BEF90023A375237502236375204685
:10297000FFF790FF10BD00BF43240000F0B589B001
:1029800006460F4601AC6D4D0FCD0FC495E807000C
:1029900084E80700002E00F0CA80002F00F0C980F4
:1029A000354638220021304609F0EFFD3046FEF76B
:1029B000DBF93046FFF74EFC0646002840F0BA80AF
:1029C0003B7C85F831303B682B60002385F8323042
:1029D0003B685B4A93420AD05A4A934273D05A4AA0
:1029E000934278D0594A93427DD0594EA2E0594B38
:1029F0002B62594BEB604FF440232B61FA69B969A4
:102A00002846FFF757FC7B6803937B89ADF81430A9
:102A1000BB89ADF81230BB7B8DF81030FB7B8DF895
:102A2000163005238DF8113001214C4800F060F973
:102A300001214B4800F05CF90121286A00F058F9A7
:102A400008A9002301F81C3D386801F0E9FE3A6846
:102A5000936F23F4F85323F01F03397A43EA0123D9
:102A6000797A0B4393673B6803225A6739462846B5
:102A7000FEF7F8F9064600285CD101212846FFF749
:102A80006FFC0646002855D100F06DFE04463B7CE5
:102A9000032B30D0022B41D03B684FF0FF329A64B9
:102AA0003B7C032B3ED00421386801F07BFE3B6861
:102AB0004FF44062DA602846FFF7F6FC06462046EF
:102AC00000F055FE36E0274B2B62274BEB604FF4AE
:102AD00050232B6192E7254B2B62254BEB604FF483
:102AE00060232B618AE7234B2B62234BEB604FF46F
:102AF00070232B6182E797F8203097F821103A680D
:102B000043EA0123D3673A68536E43F004035366E4
:102B10003A68536F43F030035367BDE72846FFF729
:102B200019FFB9E70521386801F03CFEBFE7134EF5
:102B300000E0074E304609B0F0BD00BFB8D200003B
:102B4000000001400004014000080140000C014069
:102B5000037000F00042040001000C004041050039
:102B600000350A000052040001000D00006204005C
:102B700001000E000072040001000F00027000F05E
:102B800070B586B004460E461546FEF757F9034663
:102B900010B1184606B070BD01960295039500234A
:102BA00004930E4B05936A4601A9A06AFFF7C0FC87
:102BB00003460028EDD1A36A9B889BB2012BFAD86B
:102BC00000992046FFF7ECFC012384F8303094F89C
:102BD0002D30002BFBD1009B1B69DAE7017000F060
:102BE0000C4B984208D90C4B984202D90221012281
:102BF00004E001210A4601E000210A46074B1A6061
:102C0000074AD2F8003123F0807343EA0163C2F827
:102C1000003170470048E8010090D0034000C843ED
:102C200000400E40014B1868704700BF5011002053
:102C300010B4124B5B68002300E00133042B0BD867
:102C40000F4A02EBC3021479CAB29442F5D10C4A7E
:102C500052F833208242F0D3052B0DD0084A02EB04
:102C6000C3035979054A536823F0407343EA01636B
:102C700053605DF8044B70470321F3E700000E40FA
:102C8000ECD2000003300F2828BF0F200007704748
:102C900008B5FDF783FD044BD3F80031C3F30423DB
:102CA00003FB000008BD00BF00400E4010B5074BFD
:102CB0001C6C41F671321A64FDF76CFD0021FFF7C0
:102CC000B7FF14B1014B00221A6410BD00000E4082
:102CD00010B5064B1C6C41F671321A64FFF7A8FF61
:102CE00014B1024B00221A6410BD00BF00000E4058
:102CF000C0F30323013B092B3AD8DFE803F00508B2
:102D00003939180B0E39111500221A4B11E0002227
:102D1000194B0EE00122194B0BE01022184B08E072
:102D20004FF48032174B04E00022174B01E00022E1
:102D3000164BC0F30430A2B110B40E4CD4F8444189
:102D400014F0010F04D10B4CD4F840412242FAD1C7
:102D500003F1047300EBC300800001605DF8044BD5
:102D6000704703F1047300EBC300800001607047FB
:102D7000704700BF00400E40C0400E40E0400E4093
:102D8000E8400E40F0400E4050410E40B0400E4032
:102D9000C0F30313013B092B69D8DFE803F0050BEF
:102DA000111B68682127415F334BD3F80001C0F342
:102DB00004207047304BD3F81401C0F3042070474F
:102DC0002D4BD3F80001C0F30060431C0120984054
:102DD00001387047284BD3F80C01C0F30820704726
:102DE000254BD3F80801C0F308207047234B9842C5
:102DF00004D0234B98420AD0002070471E4BD3F8D2
:102E0000203103F00F0301209840013870471A4B1E
:102E1000D3F82031C3F301130120984001387047E3
:102E2000184B984207D003F5B01303F5805398422E
:102E30000AD000207047104BD3F82831C3F3011398
:102E400001209840013870470B4BD3F82801C0F39C
:102E50000120031D01209840013870470A4B984219
:102E600007D1054BD3F8300100F003007047002074
:102E700070470020704700BF00400E4080061600DB
:102E800080162E0090171A00A009140008B5FFF74D
:102E90007FFF013008BD000000F00F000138072857
:102EA0006DD8DFE800F0041B2C6C40516C5B3B4B91
:102EB000D3F8943003F00703023B052B0CD8DFE86E
:102EC00003F0056003070B090220704704207047D8
:102ED0000B2070470C207047052070472F4BD3F80C
:102EE000803003F00703022B4DD0042B05D0012BBB
:102EF00001D001207047032070470A207047274BFC
:102F0000D3F8843003F00703013B032B09D8DFE833
:102F100003F0023C0604032070470A207047062095
:102F20007047012070471D4BD3F8883003F007032A
:102F3000022B2CD0042B05D0012B01D0012070478F
:102F4000032070470A207047144B1B6F13F00103D6
:102F50001FD00BB109207047012070470F4BD3F8E9
:102F60005C3103F03003202B05D0302B05D0102B23
:102F700011D00120704704207047082070470020BE
:102F800070470320704702207047022070470220DC
:102F90007047072070470720704700BF00400E4071
:102FA00010B50446FFF778FF1C4B9C4212D01C4B17
:102FB0009C4215D01B4B9C4206D0013803282BD8CD
:102FC000DFE800F014171D1A174BD3F8800000F04B
:102FD0000700F2E7144BD3F8840000F00700ECE799
:102FE000114BD3F8880000F00700E6E7FDF73AFC44
:102FF00013E0FDF73DFC10E0FDF737FC0DE0FDF7B9
:10300000CDFB094BD3F80031C3F300635A1C0123F5
:103010009340B0FBF3F000E0002010BD030020005F
:103020000500240002001E0000400E4008B50748BD
:10303000FFF732FF072804D0092805D1FDF7AEFBC2
:1030400008BDFFF7EFFDFBE70020F9E706000E00E3
:1030500008B10020704710B504460A48FFF71CFF6E
:10306000072805D0082809D0042804D0204601E00C
:10307000FFF7D8FD10BDFDF7CFFBFBE7FFF708FE1C
:10308000F8E700BFB800320038B500F47813B3F5A4
:10309000B01F00F08E80054631D8B3F5202F76D0D2
:1030A00015D9B3F5602F00F0A7801AD9B3F5801FAA
:1030B00000F0A580B3F5A01F11D15448FFF770FFB1
:1030C000534BD3F8303103F00303D84053E0B3F54A
:1030D000003F5FD0B3F5802F4ED0002B49D00020A9
:1030E00049E0B3F5402FFAD1FDF758FB484BD3F830
:1030F0001431C3F304230133B0FBF3F03BE0B3F529
:10310000101F75D012D9B3F5401F63D024D9B3F581
:10311000481F77D0B3F5781FE1D1FDF73FFB044698
:103120002846FFF7B3FEB4FBF0F024E0B3F5F01F40
:103130003BD0B3F5001F49D0B3F5D01FCFD13548F0
:10314000FFF72EFF324BD3F82821C2F301120123DF
:103150009340B0FBF3F00EE0B3F5381FBFD12E481B
:10316000FFF71EFF2A4BD3F82031C3F30113D840D9
:1031700001E0FDF713FB38BDFDF710FB244BD3F83E
:103180000C31C3F308230133B0FBF3F0F3E7FDF791
:1031900005FBF0E7FDF702FB1D4BD3F80831C3F345
:1031A00008230133B0FBF3F0E5E71B48FFF7F8FE17
:1031B000E1E71948FFF7F4FE154BD3F8202102F0A0
:1031C0000F0201239340B0FBF3F0D4E71148FFF75F
:1031D000E7FED0E70F48FFF7E3FE0D4BD3F82831A9
:1031E000C3F301231A1D01239340B0FBF3F0C2E7A0
:1031F0000648FFF7D5FEBEE7FFF718FFBBE7FFF76E
:1032000011FDB8E70020FFF723FFB4E70500240015
:1032100000400E400300200002001E00014B186811
:10322000704700BF44110020014B1880704700BF59
:10323000541100200138032818D8DFE800F00211EB
:10324000070C0B4B186AC0F308007047084B18694D
:1032500000F07F007047064B986900F07F007047D0
:10326000034BD3F89C00C0F30A007047002070475E
:1032700000400E4038B50138032811D8DFE800F0CF
:10328000022B111EC1F308011D4B1B68002BFBD143
:103290001C4A136A23F4FF7323F0010319431162DC
:1032A00038BD01F07F01184B1B68002BFBD1154A7C
:1032B000136923F07F0319431161F1E701F07F01E6
:1032C000124B1B68002BFBD10E4A936923F07F033E
:1032D00019439161E4E70C460A4DD5F890306B6ACA
:1032E00023F0300343F010036B62C1F3C310FFF708
:1032F000C9FC2B6B06491940214301432963CFE7E1
:103300006828C84300400E406028C8436428C8436A
:1033100000F8FF0F124B5B6A13F0300F09D0202921
:1033200004D0302916D0A9B10E4A04E04FF40002AF
:1033300001E04FF440020A4BD3F8903032EA030325
:10334000F9D112F4800F08D0054BD3F8A000C0F3D8
:10335000802070474FF44002EDE70120704700BF26
:1033600000400E40FF33E10702280DD110B529B10E
:10337000064B4FF48064C3F8A84059660AB901208F
:1033800010BDFFF7C7FFFBE70120704700400E406C
:10339000F8B504287FD8DFE800F0120D1903080003
:1033A000022301260024354614E02023102604249D
:1033B00005250FE080234026062407250AE04FF468
:1033C00000734FF480760824092503E008230426BF
:1033D0000224032500294DD0022830D000212E4B95
:1033E0001E662E4B23449B001B68002BF9D0002A3D
:1033F00051D02A4C2C44A4002368002BF9D0022879
:1034000049D1002947D0244B5B6A13F0010F2CD01F
:1034100001222021FFF7A8FF0220FFF70BFF05463E
:10342000012200210220FFF7B3FF29460220FFF707
:1034300021FF194B1E662368002BFCD02BE0164B96
:103440005B6A13F0300F0ED1154BDB6B124B5B6ACE
:1034500013F0010FC3D0104F7B6A23F0300343F009
:1034600010037B62BBE70021B9E700210220FFF7D0
:1034700051FFD1E708490B66074BD3F890100123A1
:10348000A3401942F8D132B1034BD3F89020012365
:10349000AB401A42F8D1F8BD00400E408004F21053
:1034A00000300E4070B504460D4611280CD00026A1
:1034B00004F00F04013C072C00F29880DFE804F0D0
:1034C0001E701C966E9796A3042903D005290BD075
:1034D0000026EDE7FDF7A0F90646002EE8D0002112
:1034E000304600F043FCE3E7FFF798FE06465F4BEB
:1034F0009842F2D80026DBE75D4C52E0023D0A2DEF
:1035000074D8DFE805F00615090F73737373731829
:1035100049000020042410E05648FFF761FB022018
:1035200004460AE05348FFF75BFB0320012404E054
:103530000120032401E00320052401221146FFF7A6
:1035400027FFFFF7B3FB46B14B4B1B6813F0400F4F
:1035500003D14A4B1B68002BFBD1494B5C67FDF73D
:1035600049F90446FDF71AF9FFF73AFB424B1B688D
:1035700013F0400F03D1414B1B68002BFBD1414B93
:103580005968C1F301412046FFF7A2FB76BB012138
:10359000002000F0EBFB29E00724D2E73A4C00E0E2
:1035A0003A4C013D092D21D8DFE805F005070E2032
:1035B00020152020201E002317E0012211460020A4
:1035C000FFF7E6FE022310E0012211461046FFF746
:1035D000DFFE012309E0FDF7E1F8FFF701FB2C4BCB
:1035E00001221A60032300E00423236070BD072D2D
:1035F00005D0092DFAD1224B01221A67F6E7204B9C
:1036000000221A67F2E7013D072DEFD801A353F816
:1036100025F000BF35360000ED350000ED35000027
:1036200047360000ED350000ED350000393600006A
:103630005536000000210EE0012211460420FFF75C
:10364000A7FE012107E0012211460220FFF7A0FE9C
:10365000022100E003210A4AD2F85C3123F0300352
:1036600043EA0113C2F85C31C0E700BF002D31010D
:1036700084400E400148E8013C300E40C800C6437B
:1036800000400E4000300E4088400E4080400E400A
:103690000816C84370B504461120FFF7FDFB012250
:1036A00000210220FFF774FE237C022B29D0002288
:1036B000154E736A23F00103134373622278134B90
:1036C0001A60A288637A43EAC223F362356B05F07D
:1036D0007F65E08845EAC025A07A0543207A45EA5F
:1036E000C015FFF7CFFA28433063627BA37B1B0131
:1036F00043EA0233E27B1343227B43EA02437363D0
:1037000070BD0122D4E700BF00400E40A004C843B2
:1037100038B505461120FFF7BFFB0D4A916B0D4BE5
:103720000B402C781C436B7844EAC324AB7844EA02
:103730000364EB7844EA0324936BA34206D001228E
:1037400000210846FFF724FE014B9C6338BD00BFF3
:1037500000400E4080E4FFF8EFF3108072B670472F
:1037600000B962B67047EFF3108072B6704700B9C7
:1037700062B670474209064B53F8223000F01F0032
:1037800023FA00F080F0010000F00100704700BF54
:1037900000E100E038B5EFF3108313F0010F35D1ED
:1037A000C5B20446FFF7E6FF034680BB002C21DBD1
:1037B00004F1604000F5614090F800134909EFF30F
:1037C000118212B1B1EB521F23D2134A5268C2F3D5
:1037D0000802E2B1103AD2B250B2002810DB00F178
:1037E000604000F5614090F80023520991420ED3E9
:1037F00001230CE005F00F05084A515D4909DEE799
:1038000002F00F020548825C5209EFE701231846D7
:1038100038BD0123FBE700BF00ED00E014ED00E040
:10382000114B1B6813F0400F16D10F4B1B6813F0A0
:10383000400F03D10D4B1B68002BFBD10C4B1A68BA
:10384000C2F301225B68C3F301439A4205D8084AD8
:10385000136823F0100313607047054A136843F0A0
:1038600010031360704700BF3C300E40C800C643D1
:1038700000300E40074B1B6813F0100F05D0064BAD
:103880001B69C3F30443082B00D07047034B044A61
:103890001A60FAE700300E4000400E40441100204C
:1038A000C0EA21011A48C26CC2F30322194B1B88DB
:1038B00003F1280103EB51032833013202EB8201AB
:1038C000B3FBF1F3013B072B28BF0723C16C21F0A9
:1038D000EE6141EA036343F48013C3640E4BB3F912
:1038E0000030002B13DB9BB203F1280103EB5103E3
:1038F0002833510801EB4202B3FBF2F3072B28BF38
:103900000723026D22F0700242EA03130365704739
:1039100000300E408223002084230020024B1880B8
:10392000024B1980704700BF8223002084230020AF
:1039300010B1012804D07047034B044A9A657047C0
:10394000014B034A9A65704700300E40774020577C
:10395000372110B71A4BD3F88031032929D8DFE873
:1039600001F002121518DBB24AB91B0333F470419F
:1039700021D11448C16E21F470411943C166012A56
:1039800009D001207047C3F30723EDE7C3F30743D2
:10399000EAE71B0EE8E71B0333F470420DD1094937
:1039A000D1F8EC2022F470421343C1F8EC3001202E
:1039B000704700207047002070470020704700BF0C
:1039C000B081E00F00300E401B02DAB10122134338
:1039D00040F20112934237D0B3F5817F14D340F205
:1039E0000122934237D01CD9B3F5407F41D040F239
:1039F0000132934244D1244BD3F878311A0EC3F3E9
:103A000007431EE00022E2E7012B14D053B3B3F5C5
:103A1000807F35D11C4BD3F86C311A0EC3F30743AA
:103A20000FE0B3F5007F2BD1174BD3F87031C3F300
:103A30000722DBB205E0144BD3F87431C3F307223D
:103A4000DBB203600A6070470F4BD3F874311A0E73
:103A5000C3F30743F5E70C4BD3F87831C3F30722E0
:103A6000DBB2EEE7084BD3F86C31C3F30722DBB2CD
:103A7000E7E7054BD3F870311A0EC3F30743E0E7CD
:103A800000221346DDE700BFB081E00F10B500282B
:103A900054D0444B1B6813F0400F07D1424B1B78A6
:103AA000C3F1020210239340404A1361404AD2F806
:103AB000804104F0010445F60E03C2F880313D4B0D
:103AC0001B6803F0010003F01001084303F04001FC
:103AD000084303F00401014303F480730B431366AE
:103AE000304B1B6813F0400F03D1334B1B68002B86
:103AF000FBD12E4B1B6813F0100F0DD02C4BD3F8BD
:103B0000403113F0807FF9D12C4B1A68284B1A6191
:103B10002B4B1B78052B2FD0294B197805293DD12C
:103B2000244B1B6813F0010F02D1214B02221A66AD
:103B30001CB11F4B0022C3F8802110BD1C4BD3F8D1
:103B400090201C4B1A601120FFF7A6F91C4B18702F
:103B5000144B1B6813F0400F03D1174B1B68002B4D
:103B6000FBD1124B5B68C3F301430F4A1370104B38
:103B70001A69124B1A60E0E7124B1868094B1B6870
:103B800013F0400F03D10C4B1B68002BFBD1074BEC
:103B90005968C1F30141FFF79BF8BDE71120FFF71A
:103BA00081FCBDE73C300E408D23002000300E40EC
:103BB00000400E407C230020C800C643882300201C
:103BC00086230020441100207047000038B50446C9
:103BD000D8B9FFF725FE164A136943F004031361B1
:103BE000FFF7F2FF134B1B6813F0100F11D130BF1A
:103BF00001F0AEFBB4B10120FFF748FF0E4A136895
:103C000023F00043136084B138BD0020FFF73EFF6E
:103C1000DFE7FFF7A1FD054609F03AF92846FFF76F
:103C20009FFDE5E7FFF726FEE8E7FCF7E3FDEBE79E
:103C300000ED00E000300E404C310E4038B5044637
:103C400058BBFFF7EDFD1E4BD3F8802145F60E0162
:103C5000C3F880114FF42071196612F0010F02D0E1
:103C60000022C3F88021174A136943F0040313614B
:103C7000FFF7AAFF144B1B6813F0100F11D130BFD0
:103C800001F066FBB4B10120FFF700FF0F4A136893
:103C900023F00043136084B138BD0020FFF7F6FE27
:103CA000CFE7FFF759FD054609F0F2F82846FFF780
:103CB00057FDE5E7FFF7DEFDE8E7FCF79BFDEBE7E7
:103CC00000400E4000ED00E000300E404C310E4050
:103CD00008B50020FFF7DAFE08BD08B50120FFF7A0
:103CE000D5FE08BD1D4B1B6813F0400F34D11B4B94
:103CF0001B6813F0400F03D1194B1B68002BFBD13D
:103D0000184B5B68C3F30143984225D070B50D464C
:103D10000446154BD3F80031FCF740FD0646022C53
:103D200011D0C4F10202102393400E4A136145B131
:103D30000A4B1B6813F0400F03D1094B1B68002B83
:103D4000FBD124B170BD0221FEF7C2FFE9E70021DB
:103D50003046FEF7BDFFF5E7704700BF3C300E4030
:103D6000C800C64300300E4000400E4038B5114B2D
:103D70001B6813F0400F0BD10D4650B10E4B1B7852
:103D800013B10E4B98420FD929460020FFF7AAFF26
:103D900038BD0B4BD3F80001C0F30420441CFCF7E2
:103DA000FDFC04FB00F0E9E729460220FFF79AFF3B
:103DB000EEE700BF3C300E408C230020002D310187
:103DC00000400E4008B50278034B1A700121002014
:103DD000FFF7CCFF08BD00BF8C230020074A136803
:103DE00023F44073417843EA012313604378022BA4
:103DF00000D07047024B5B6AFBE700BF00300E400B
:103E000000400E40134B9A6922F03F020378D3B171
:103E100004234178C9B102210B438178B9B108214B
:103E20000B43C178012900D000210B4301790B43DA
:103E30001343084A9361136823F44033417943EAFA
:103E40000143136070470023E3E70021E4E700210A
:103E5000E6E700BF00300E4010B42B4B5A6B4AF619
:103E6000E8515963284B9B6F13F0010FFAD1264B91
:103E70001B6C13F0030302D0244901240C60D9B257
:103E8000814220D0032B00D01BB9431EDBB2012B93
:103E90001FD91D4B9B6F13F0010FFAD11A490B6C00
:103EA00023F0030303430B64174B9B6F13F0010FC5
:103EB000FAD1003018BF0120144B1860012A1ED01F
:103EC0005DF8044B70470028FAD1104B00221A60AD
:103ED000F6E70D4B4FF40021D9620B4B9B6F13F0AB
:103EE000010FFAD108490B6C23F0030343F00103DF
:103EF0000B64054B5B6A13F4002FFAD0C9E7024B41
:103F000000225A63DCE700BF00300E40B40AC6430B
:103F10002DE9F04F89B00023059306930793029390
:103F200003930493A0F5E163B3F5966F00F2A580C7
:103F3000B0F5E16F8CBF4FF001094FF0000965D972
:103F40004FF4966A4FF4E165B0F5E16F63D9534BD6
:103F5000D3F868311C0E0494C3F30743079301920E
:103F6000009104464E4EF76CC7F301773B464A4634
:103F700002A905A8FFF728FDD6F8EC30C3F3012805
:103F800043464A4603A906A8FFF71EFD651B07998D
:103F9000049B5B1A03FB05F3B3FBFAF30B44DDF858
:103FA00008B0DDF814C0ABEB0C0606FB05F6B6FB5B
:103FB000FAF66644DDF80CE00698AEEB000202FB70
:103FC00005F5B5FBFAF50544049A9A425AD399428D
:103FD0005AD8AE455AD3A8425AD8B3455AD3B44555
:103FE0005AD8019A72B12E4AD26D22F4FE4222F0C2
:103FF000020242EA0323B4F5E16F15D9022213430A
:10400000274AD365009B8BB9012337E04FF4167A1A
:104010004FF4966598E7214BD3F86831C3F3072432
:104020000494DBB207939AE70022E8E700223946BE
:104030004846FFF78FFC034600B30122414648463D
:10404000FFF788FC0346C8B13246AE4238BF2A4665
:10405000E72A28BFE7221249496E21F4FF7121F0B7
:10406000010141EA4202B4F5E16F04D901210A439A
:104070000B494A6602E00021F9E70023184609B01F
:10408000BDE8F08F0023F9E70023F7E70023F5E709
:104090000023F3E70023F1E70023EFE7B081E00F0F
:1040A00000300E4008B5224A136F03F00703D26CAC
:1040B00012F0010F08D0012B06D9132821D914388A
:1040C000132820D8082325E0194AD26C12F0010FDA
:1040D00001D1012B08D9164AD26C12F0010F18D069
:1040E000012B08D9002315E009280ED90A38092820
:1040F0000DD808230EE0272801D910230AE0082351
:1041000008E0042306E0102304E0042302E0102367
:1041100000E00023013B1A0342EA03220449CB6C6E
:1041200023F47F431343CB64FFF7BCFB08BD00BF00
:1041300000300E4008B5064B1B68064A136F23F08B
:10414000070318431067044B1888FFF7ABFF08BD3F
:104150008009C64300300E408023002008B5084A7D
:10416000D36E43F08073D366064B1B681BB90020E7
:10417000FFF7E0FF08BD0420FFF7DCFFFAE700BF10
:1041800000300E408009C64338B5304B02229A6396
:104190009B6B03F00F03934202D00025284638BDE5
:1041A000B0F90C10C3884A2B09D9B3F5FA7F42D372
:1041B00040F6C312934241D84FF0005200E0002273
:1041C000224BDB6C23F0405323F00103002938DB42
:1041D000012104460A4313431C4AD364D2F8EC304D
:1041E00043F44073C2F8EC308288194B1A80FFF711
:1041F000B5FFB4F90C102089FFF790FBA088FFF7FA
:1042000051FFA07BFFF794FB012211466088FFF766
:104210007FFE05460028C1D00C4AD36B43F480636F
:10422000D3636078FFF718FEA37A202B0BD000220F
:10423000084B1A60B2E74FF08052C1E74FF040528E
:10424000BEE70021C5E70122F2E700BF00300E40C3
:10425000802300209407C64370B4072A2BD895000A
:104260000F24AC40A8401F4D2C601F4C2060002440
:10427000072A2BD9A4000320A04001F00301A1408C
:104280001A4C20601A4801601A49114489000B60D9
:10429000194B13449B009DF80C10196001239340A7
:1042A0001649C1F82434164B13449B009DF8102086
:1042B0001A6070BC7047A2F10804A6000F25B54033
:1042C000B040104E3560104D2860D1E794000320B7
:1042D000A04001F00301A1400C4C20600C4801609B
:1042E000D2E700BF00A4004400A400460CA4004490
:1042F0000CA4004680208510A020851000A000405E
:104300004021851004A4004404A4004608A40044ED
:1043100008A40046F0B414463AB143B300EB40029F
:10432000160101258D40264A9551072927D8254E8B
:1043300045002F183A01324452688F004FF00F0C9D
:104340000CFA07FC22EA0C0204FA07F73A43054488
:104350002F013E44726044B94BBB00EB40000201A8
:10436000012303FA01F1184B9950F0BC704700EBA0
:104370004002160101258D40134A9551D5E7114F92
:10438000460035182A013A44956801F18042083AFE
:1043900092004FF00F0C0CFA02FC25EA0C0504FA0F
:1043A00002F22A4335182E013744BA60D3E700EBF6
:1043B00040000201012303FA01F1014B9950D4E7B7
:1043C0000CA0004600A000400CA0004481F00101B8
:1043D000024B03449B001960704700BFA001F1101D
:1043E00010B5044601214FF4AA40FEF781FC237862
:1043F0006178A27842EA012242EA03620B4B1A601A
:1044000000221A62DA625A634FF00042DA664FF015
:10441000FF329A66064A4FF40071C2F88011E378C1
:104420005B01DBB282F80933116010BD00200E4041
:1044300000E100E0F8B50C46C3B201259D400B68D1
:10444000254E470007EB000C4FEA0C113144C1F830
:104450008030637BC1F8883094F80AC0E37A1B058A
:1044600043EA0C4394F80CC043EA4C53C1F884303F
:1044700022F00302C1F89820B566FFF774F9F36ED5
:104480002B43F366237A13B1736B2B437363637A05
:104490001BB1114AD36A2B43D3620F4B1B6822799D
:1044A00022B1D243120262F47F42134062790AB110
:1044B00043EA0223A2791AB1D24362F0FF02134009
:1044C000E27902B11343044A1360044B1D60D563C3
:1044D000FFF74DF9F8BD00BF00200E4028200E4424
:1044E00010B5C0B201248440FFF73DF9084B1B6AA8
:1044F000234206D1064B9B6A34EA030306D000240C
:1045000000E00024FFF733F9204610BD0124F9E74D
:1045100000200E40064B0B4003F58073B0FBF3F216
:1045200003FB12000002B0FBF3F000EB0220704727
:10453000F8FF0100064B984201D00020704710B5EB
:1045400004460448FEF7A0FDE168FFF7E3FF10BD55
:1045500000A0044090171A00836813F0100FFBD0DE
:10456000036C13F0010F03D1436C13F0400FFBD128
:104570008162704710B44A790B784C7843EA84031F
:104580008C7843EA8413CC7843EA04130C7943EA29
:10459000C42343EA02338A7943EA424304300001E8
:1045A000024A13505DF8044B704700BF00200440DE
:1045B000014B1860704700BF0000844203780BB3C2
:1045C0000123427802B3042213438278F2B110220D
:1045D0001343C278E2B120221343027943EA022353
:1045E000427943EA02338279A2B14FF40042134385
:1045F000C27943EA0243027A72B900221343084A9D
:10460000136070470023DCE70022DDE70022DFE7CC
:104610000022E1E70022EAE74FF40032EEE700BFB4
:10462000002004400B4A53699B0003F03C031169CE
:10463000C1F381110B438370136903F03F0343708F
:10464000936903F0F003D269C2F3031213430370BA
:10465000704700BFD0FF0FE041F0800181657047D7
:1046600070B5054616461C46084641B1202C22D09E
:1046700009D9402C1DD0602C1AD1042205E00F4826
:10468000FEF702FDF2E79CB9102206FB02F2530886
:1046900003EB4010B0FBF2F02038094B03EAC000F6
:1046A0002B6823F060032B602B681C432C6068612F
:1046B00070BD0622E9E70822E7E700BF4041050098
:1046C000F8FF7F002DE9F8438146214808409AB958
:1046D000202B37D0402B0AD023B140244FF00008C4
:1046E00001260DE010244FF00008012608E0802488
:1046F0004FF00008032603E080244FF00008012655
:1047000000F5807006FB00F6002532462B46484631
:10471000294607F077FD074632462B46484629468C
:1047200007F070FD04FB07F704FB03F308FB0238F6
:10473000A4FB0201414432462B4607F063FD384496
:10474000BDE8F88320244FF000080126D8E700BF19
:10475000F8FF7F0038B50446036813F0010F0BD152
:1047600000250648FEF790FC2368616903F06003AA
:104770002A46FFF7A7FF38BD0125F2E740410500B3
:1047800038B505461446084631B101386400B0FB1F
:10479000F4F00002686138BD0148FEF775FCF4E7EB
:1047A00040410500CB435B0003F00A03C360C160D6
:1047B0007047000040F6AA63C3600023036041F223
:1047C0000502426083604361C364134A82640366E6
:1047D00043678367C367114B98420BD003F580632F
:1047E000984207D003F58063984203D003F58063B5
:1047F000984201D1002303650023836503F18043C0
:1048000003F58233984203D003F50063984201D147
:104810000023C365704700BFF9FF0100000001409D
:1048200038B505460C46FFF7C5FFA37C1BB12B68C6
:1048300043F080432B60E37C33BB637B228A1343CA
:10484000E28913436B60237BA26861682846FFF707
:1048500007FF637D1BB12B6843F480332B60A37D7E
:104860001B0703F0E043E27D120502F4E00213436C
:104870002B666B6F23F030036B676B6F227E1343E5
:104880006B672378EB6038BD217D2846FFF7E4FE97
:10489000D3E738B505460C46FFF78CFF2A68238A14
:1048A00043F00103A17B00292DD04FF480610B431D
:1048B00013432B602B68227D3AB34FF00052134311
:1048C0002B60A37C1BBB237B43F480536B60A268EB
:1048D00061682846FFF754FF637B0BB11023EB6040
:1048E000637D1BB12B6843F480332B60A37D1B07D2
:1048F00003F0E043E27D120502F4E00213432B666D
:104900002378EB6038BD0021D1E70022D7E7E17CB6
:104910002846FFF7A1FED6E7036913F0400FFBD04E
:104920004163036913F0200FFBD0C069C0B2704728
:10493000036913F0400FFBD04163704738B504465C
:1049400002F0FBFF044D0FCC0FC594E80F0085E883
:104950000F00002038BD00BF9023002047F6FF73F2
:104960009A4276D0022976D8F0B40D463C4B03EB40
:10497000C1008478012CB8BF0124204613F83130DF
:10498000012B24D0364B03EBC1035C68002C64D0B0
:10499000B4F90060964204DBB4F90260964200DC90
:1049A0001646A388FF2B26D02827C8230022354689
:1049B0009B1B93FBF7F313441BB2294A02EBC10183
:1049C0004E78721E12B29A422BDB1A4629E0244B13
:1049D00003EBC101C878001B01E0013800B238B117
:1049E0001F4B03EBC5035B6833F910309342F4DCD3
:1049F0002044C0B22BE0B4F90630B4F908700122AB
:104A0000D5E703F5FA731749A1FB03139B0901329C
:104A100012B21746B2420FDA04EBC20189889942FA
:104A20000AD304EBC2018F68B1F9063003FB0573AA
:104A3000002BE6DA0023E4E77A1E04EBC202928838
:104A40009A4200D31A46824200D31046C0B2F0BC4C
:104A50007047FF207047002070470020F7E700BF35
:104A600090230020D34D621002295ED8344B13F8F6
:104A70003130012B27D0002A59D0F0B4304B03EB52
:104A8000C1035C68002C54D0251D54D0B4F9020039
:104A9000844682422FDD2A4B03EBC103DB7893422D
:104AA00027D9274B03EBC1014F78013FFFB2002309
:104AB000BB4222D2591C35F8316091B28E421CD3D0
:104AC0000133DBB2F4E71E4B03EBC103DB78934207
:104AD0000DD21B4A02EBC1018A78012AACBF9B1A96
:104AE00003F1FF33DBB24A6832F913007047134613
:104AF000EFE7B4F90000F0BC70474FF47A7101FBA6
:104B000002F205EBC3035968521AB3F9021001EB24
:104B1000D17302EB630393FBF1F3B4F900209A42E3
:104B20000BDB9C45E7DC18B2E5E706487047064812
:104B300070470448DFE70348DDE71046DBE700BFC6
:104B4000902300200080FFFF0CFEFFFF08B5024805
:104B5000FFF7F4FE08BD00BF14D3000070B582B0AB
:104B600004460D4602F030FF08B102B070BD694640
:104B7000204602F0E4FE00B1FEE76A680F4B9A425D
:104B80000ED80F4D9DF800302A789342EDD0032BBC
:104B900008D164262946204602F0B9FE38B1FEE766
:104BA000084DEFE7204602F0F3FE0646F2E73146F5
:104BB000204602F0C8FE0028D7D0FEE7FFC99A3B86
:104BC0006011002058110020014B1868704700BF89
:104BD000BC23002010B586B0FBF774FF1C4B984235
:104BE00000D020B9002103A8FBF73CFF58B31949B6
:104BF000194802F015FC194C2060194A194B196824
:104C000002F028FE4FF00111206802F047FF164A1B
:104C100040F21F13CDE900234FF0FF324FF0FF3376
:104C2000206802F05DFE114B1B88ADF81430ADF822
:104C3000103005A9206802F037FE04A9206802F0B0
:104C40004BFE06B010BD9DF80C0002F039FCCEE71B
:104C5000038000F0BB05000068110020BC23002089
:104C6000C50500000C100020EFDFF3FFCCD30000DF
:104C700010B584B0054B6C460FCB84E80F0020467E
:104C8000FFF782FA002004B010BD00BFD0D30000AF
:104C900010B582B000240094ADF8044002238DF8D2
:104CA00005306846FFF7AEF8204602B010BD0000A0
:104CB00030B587B001AC144D0FCD0FC42B682380E5
:104CC000124B5B6813F4002F11D1104B9B68C3F398
:104CD0000803B3F1FF3F14D0ADF80A300C48FBF7DE
:104CE000A1FD01A8FEF7D6FC002007B030BD4FF0B3
:104CF000FF33084A12884FF6FF718A42E9D0134603
:104D0000E7E74FF4AA73E7E7E0D30000B081E00FD4
:104D100000F049020001E00F00B583B0074B1B68AB
:104D2000019302A8202300F8043DFEF7F1FC642063
:104D3000FEF77AFA002003B05DF804FBF4D300001C
:104D4000013840EA500040EA900040EA101040EA82
:104D5000102040EA10400130704770B504460D46FF
:104D60001E461046FFF7ECFFB0F5807F38BF4FF4CA
:104D7000807043422340C21803E040004342234076
:104D8000C218AA42F9D33360049B1A60059B1860CD
:104D900070BDB0FA80F0C0F11E00C0B270470000D4
:104DA00070B586B0002305930493BFF34F8FBFF314
:104DB0006F8F374A536A23F480335362354C6368EC
:104DC00023F0010363604FF00050FFF7E2FF324A27
:104DD0001368400000F03E0040F0985040F0011091
:104DE000A3604FF00051E1602061013313602B4D4F
:104DF0002B4CA5423AD003AB019304AB009305AB17
:104E00002A1B29462046FFF7A8FF0398C20800D1B5
:104E10002022049B5B1BB3FBF2F3012101FA03F395
:104E2000DBB2013BDBB2059E013DAD1BB5FBF2F5EC
:104E30000D44AB40DBB2A41BB4FBF2F401FA04F462
:104E4000013CE4B21C43FFF7A4FF13490B68400088
:104E500000F03E0040EA042444F0407444F00114A1
:104E60000C4A9360D660146101330B60BFF34F8F1F
:104E7000BFF36F8F074B05225A60054A536A43F40C
:104E800080335362BFF34F8FBFF36F8F06B070BD97
:104E900000ED00E090ED00E0C0230020941300201E
:104EA00080130020BFF34F8F0549CA6802F4E06207
:104EB000044B1343CB60BFF34F8F00BFFDE700BF30
:104EC00000ED00E00400FA0508B5FFF7EBFF08BDB0
:104ED0000120012805D8431E034AD35C0BB90130D9
:104EE000F7E7C0B2704700BFEC230020F8B50646D4
:104EF0000F46032903D8DFE801F00A04060800255D
:104F000006E0042504E0102502E0402500E001252C
:104F1000032E05D8DFE806F002070A0D45F002056A
:104F20000B4B1C6809E045F00805F9E745F0200542
:104F3000F6E745F08005F3E7246844B163681A6832
:104F40002A42F9D05B68394630469847F4E7F8BD05
:104F5000E823002010B50C4B1B783BB10B4B1B78A2
:104F600063B900F019FA084B00221A70084C0121AD
:104F70002078FFF7BBFF0123237010BD00F00BFA70
:104F8000024B00221A70ECE7E6230020E423002005
:104F9000DC23002038B5FEF7DFFB0546114B1B78FC
:104FA000B3B900F015FB0446C0B900F019FC0E4B74
:104FB000186000F041F90D48FBF760FC0C4B002233
:104FC0001A6000F02FFA0B4B1860064B01221A7082
:104FD0002846FEF7C5FB0024204638BD2846FEF7CC
:104FE000BFFBF9E7E5230020F0230020E8230020A1
:104FF000F4230020E023002070B504460D46FEF7A0
:10500000ABFB0646601E174B1B5CE5B10122134447
:10501000144A1354144B1C78012C10D9FFF758FF75
:10502000054684420BD9114B1B7873B9104B1B7882
:105030008BB90D4C29462078FFF758FF2570304674
:10504000FEF78EFB70BDFF22E1E700F0A4F9074BED
:1050500000221A70EAE700F09FF9054B00221A704F
:10506000E7E700BFEC230020DC230020E42300203E
:10507000E623002010B584B0F0B1831E012B1ED8AA
:1050800003A9002000F06AFBC8B91B4B1B68039AF8
:105090009A421FD9194B1C6800F0CAF920440399A1
:1050A000884220D20223019300230093144A091A54
:1050B000144800F0F5FA02E0134B1B780BB904B06A
:1050C00010BD124A00210120FFF796FF0E4B00226F
:1050D0001A70F4E70D4A01210846FFF78DFF0A4BCD
:1050E00001221A70EBE7094A01210846FFF784FF05
:1050F000054B01221A70E2E7E0230020F423002090
:10510000554F0000C4230020EF230020F8D30000F7
:10511000064B1B6803FB00F000F5742000F23F20F3
:10512000034BA3FB0030800C704700BFF02300202E
:1051300083DE1B4338B5FEF70FFB054602F066F928
:1051400008BB2846FEF70CFB60E000F0FDF831E0FC
:105150002146FFF7CBFE314B1C702FE0304B012274
:105160001A702E4B187800F043F9AFF300802846F0
:10517000FEF7F6FAFEF7F0FA05462A4800F060FA64
:1051800002F04BF950B3284B1B7833B1274A137800
:10519000013B1370244B00221A70FFF799FEFFF7B2
:1051A00069FFFFF795FE0446012803D91C4B1B78C5
:1051B000002BCAD0194B1878A042C9D1012CD0D9E4
:1051C000174B1B78002BCCD1194B1B78002BC5D16A
:1051D00000F0E0F8174B01221A70BFE7104B1B7864
:1051E0003BB1144B1B7893B900F0D6F80C4B00225E
:1051F0001A700020FFF73EFF084C00212078FFF7CF
:1052000075FE002323702846FEF7AAFA38BD00F089
:10521000C2F8084B00221A70E6E700BFDC2300202A
:10522000E6230020C4230020EF230020EC230020ED
:10523000EE230020E42300202DE9F04B82B000246F
:105240008DF804408DF8054002A800F8084DFEF7DF
:10525000B9FD8DF8054001A8FEF7C0FD344AD2F82B
:105260009030C3F3800333490B70D2F89020C2F31F
:10527000003231490A70B3B92F4B1B78D3B92F4B89
:105280001B68C3F3032301209840C0F1010000EB29
:1052900080006430FFF73CFF294A1368184410600F
:1052A00002B0BDE8F08B4FF41670FFF731FF254BCD
:1052B0001860E1E71120FDF7E7FE1D4BD3F8002150
:1052C000C2F3042202FB00025B6CC3F30B43013305
:1052D00003EB83039B464FF0000C5C010025E41AAE
:1052E00065EB0C056B0243EAD453610211EB0B0032
:1052F00043EB0C014FEA811949EA90694FEA8018A3
:10530000B8EB000469EB01051BEB04064CEB050749
:10531000501E0023341847F100052046294606F0A8
:1053200071FFFFF7F5FE064A136818441060A6E700
:1053300000400E40022400200024002000200440F1
:1053400004240020FC23002008B5FEF7C1FC08BDA2
:1053500008B50D4B1B7803B908BD022000F09CFB7B
:105360000028F9D000F02AFA0028F5D00022012107
:105370000220FEF70DF800F027FA044B1860044BEA
:1053800001221A70E8E700BF02240020F823002061
:10539000012400207047704708B5104B1B7813B9E3
:1053A0000F4B1B78ABB9FEF798FC0D4B1B787BB10C
:1053B0000C4BD3F8903013F0080FF9D000F004FA3A
:1053C000094B1B68C01A094B1860044B00221A7065
:1053D00008BD00F0F9F9044B1860E4E7012400204F
:1053E0000224002000400E40F8230020FC2300206F
:1053F00008B502280BD003280DD0012800D008BD25
:10540000074A136923F00403136130BFF7E7002054
:10541000FEF7DCFBF3E70020FEF710FCEFE700BF30
:1054200000ED00E008B54FF41670FFF771FE08BDFF
:10543000044B1B680BB103EBD303034A10681844F9
:10544000704700BFFC230020042400204161114B61
:105450001B68CBB110B4002403E0891A41611C46DB
:105460009B6823B15A698A42F7D9002AF5D044B122
:10547000A060836013B15A69511A59615DF8044BF9
:105480007047044A1060F4E7024B18600023836001
:10549000704700BF202400200E4B1B68002201E053
:1054A0001A469B680BB18342FAD1834201D0022095
:1054B00070474AB18368936083684BB141695A6908
:1054C0000A445A61002070478268024B1A60F3E771
:1054D00000207047202400200A4B1B6800220A4944
:1054E0000A70012A0CD8D98811F0020F04D19B68E8
:1054F00033B159690A44F4E7034B01221A7070472B
:10550000704700BF202400201424002008B500F0BC
:1055100057FA0B4B1B6883B10A4A1268821A596901
:10552000914204D38A1A5A61064B186008BD401A8A
:10553000044A106000225A61F8E7024B1860F5E750
:10554000202400200C24002010B5074B1B685C6948
:10555000064B1B681C44022000F03EFA204600F077
:105560004DFAFFF7B9FF10BD202400200C240020C5
:1055700070B504461546049A9DF814002071226007
:105580000020A0602561E360BDF81800E080B9B993
:10559000616113B11146204698477DB1FEF7E3F8EB
:1055A0000646FFF7B3FF29462046FFF74FFF074B9C
:1055B0001B68A34206D03046FEF7D9F8002070BD24
:1055C0000D46EBE7FFF7C0FFF5E700BF2024002002
:1055D00010B5FEF7C8F80446124B1B78DBB9124A27
:1055E0001360124A1360124A138000F0A7F90120D9
:1055F00000F0F2F900F080FA0E4B186080B102461C
:1056000000230D4840F2E73106F0FCFD0B4B18601B
:10561000044B01221A702046FEF7A9F8002010BDA5
:105620002320FCE708240020202400200C24002054
:10563000162400201C24002018FCFFFF102400204A
:1056400070B540B30446FEF78EF80546FFF75EFFDF
:10565000124B1B68A3420CD000262046FFF71CFF0C
:10566000044640B95EB10D4B1B6843B1FFF76CFFB8
:1056700008E00126F1E72846FEF779F805E0074B38
:105680001B6823B12846FEF772F8204670BD022041
:1056900000F0E4F9F6E72224F7E700BF2024002019
:1056A000B0B1F0B585B004461F4616460D46FFF76B
:1056B000C7FFBDF82C3002939DF828300193009766
:1056C0003346002229462046FFF752FF05B0F0BDC1
:1056D00022207047B8B138B50546B1B10C46002359
:1056E0000B70FEF740F80A4B1B6801E001222270A4
:1056F0002BB122781AB9AB42F8D09B68F8E7FEF7D5
:1057000036F8002038BD222070472220FAE700BF7B
:1057100020240020F0B587B000248DF81740C8B1D0
:1057200004461F4616460D460DF11701FFF7D2FF3E
:105730009DF8173083B9BDF8343002939DF83030AE
:10574000019300973346002229462046FFF710FFB9
:1057500007B0F0BD2220FBE70320F9E7F8B50546C6
:105760000F46FEF700F80646124B1B680024DBB11B
:105770005A691444DA88AA4201D09B68F7E700F01E
:105780001FF90D4B1B68C01AA04206D300243C60D1
:105790003046FDF7ECFF00200AE000F011F9064B5F
:1057A0001B68C01A241AF2E73046FDF7E0FF1B2001
:1057B000F8BD00BF202400200C240020014B1878E5
:1057C000704700BF1424002038B5FDF7CCFF054614
:1057D00000F0F6F804462846FDF7C9FF204638BD1C
:1057E000014B1868704700BF1C2400200A4B1B683F
:1057F00083420ED310B50C46084B19684FF47A72E9
:105800000023A1FB000106F0FDFC01302060002018
:1058100010BD2120704700BF102400201C24002050
:105820002DE9F843044610F0010F04D114F0020FE3
:105830000FD1BDE8F8833D4A138801339BB2138032
:10584000FFF764FE3A4B1B68002BEFD0FFF77CFE9E
:10585000ECE700F0B5F80546364B1E68861BFDF7F1
:1058600082FF804600273A462EE0521A9B684BB1D1
:105870005969914206D894F804C018798445F4D93E
:105880001C46F2E74046FDF772FF6369F61A0023F3
:105890006361FDF768FF80462046FFF7FDFD404647
:1058A000FDF765FF2369D3B9E36813B1216820468A
:1058B0009847013700F084F88146451B2E44FDF7D8
:1058C00052FF804622464D46194B1C6894B16369CD
:1058D000B3420FD8174B1D6023463246C7E7FDF78A
:1058E00042FF804621692046FFF7B0FD4046FDF7A4
:1058F0003EFFD9E7012F0ED00F4B00221A708CB15A
:1059000063699E1B66610B4B1D60FFF71DFE4046E1
:10591000FDF72DFF8DE7D388022BEDD1064B012239
:105920001A70ECE7022000F099F8F0E71624002046
:10593000202400200C2400201824002010B586B05C
:105940001B4B03AC93E8070003C422700C3393E8AD
:1059500003000190ADF80810090C8DF80A10012120
:105960001448FDF7C5F900248DF80C408DF810405F
:1059700003A8FEF723FE06A901F8144D0120FEF747
:10598000F9FD0D4A536A23F4FF6323F007035362C2
:1059900040F2FF73136294600120FEF709FE074B8B
:1059A0004FF08042C3F880211A6006B010BD00BFDE
:1059B00004D40000A00914000020044000E100E02D
:1059C000014B9868704700BF00200440014B586DA0
:1059D000704700BF0020044010F0010F0AD10023DF
:1059E00010F0020F01D043F00403034A516A0B4345
:1059F000536270470123F3E70020044038B50446A2
:105A0000FFF7DEFF0546FFF7E1FF124B9B6913F03E
:105A1000040F04D1431B022B01D885420BD1631B19
:105A2000012B14D9B4F1FF3F28BF0134094B5C6549
:105A30000220FFF7D1FF084B1B783BB1054A136DDD
:105A400043F002031365044B00221A7038BDAC1CEE
:105A5000E8E700BF00200440DC12002010F0010F36
:105A600013D1002210F0020F09D042F00402084BBB
:105A70000121197007490B6D23F003030B650549DC
:105A80004B6A23EA02034B6270470122EAE700BF38
:105A9000DC12002000200440074B9B69012804D041
:105AA000022806D1C3F38000704703F00100C0B2A2
:105AB00070470020704700BF0020044010B5FDF77C
:105AC00052FE04460B4B9B6913F0010F0FD10020CF
:105AD00013F0040F01D040F0020003F00703054A61
